:020000040800F2
:10000000780D0020050100086D260008531E000829
:10001000692600087F020008812B0008000000000C
:100020000000000000000000000000001127000890
:10003000970200080000000071260008132700083E
:100040001F0100081F0100081F0100081F01000810
:100050001F0100081F0100081F0100081F01000800
:100060001F0100081F0100081F0100081F010008F0
:100070001F0100081F0100081F0100081F010008E0
:100080001F0100081F0100081F0100081F010008D0
:100090001F0100081F0100081F0100081F010008C0
:1000A0001F0100081F0100081F0100081F010008B0
:1000B0001F0100081F0100081F0100081F010008A0
:1000C0001F0100081F0100081F0100081F01000890
:1000D0001F0100081F010008712B00081F01000804
:1000E0001F0100081F0100081F010008DFF810D0E1
:1000F00000F0A4F800480047A1300008AFF30080EA
:10010000780D00200648804706480047FEE7FEE7D6
:10011000FEE7FEE7FEE7FEE7FEE7FEE7FEE7FEE7B7
:10012000A3270008ED000008202A04DB203A21FA6A
:1001300002F00021704721FA02F3D040C2F1200200
:10014000914008431946704740EA01039B0703D0DA
:1001500009E008C9121F08C0042AFAD203E011F806
:10016000013B00F8013B521EF9D27047D2B201E0C8
:1001700000F8012B491EFBD270470022F6E710B5AC
:1001800013460A4604461946FFF7F0FF204610BD05
:1001900030B505462A460B4612F8010B13F8014B01
:1001A00008B1A042F8D01CB1002802D06D1CF1E7C4
:1001B000284630BD421C10F8011B0029FBD1801AD3
:1001C00070470022CBB20178994200D10246401C10
:1001D0000029F8D1104670472DE9F05F0546002050
:1001E00092469B4688460646814640241BE02846A8
:1001F000414647462246FFF797FF53465A46C01AE4
:10020000914110D311461846224600F029F82D1AC4
:1002100067EB01084F4622460120002100F020F83C
:1002200017EB00094E41201EA4F10104DFDC484613
:1002300031462A464346BDE8F09F0000064C074D74
:1002400006E0E06840F0010394E8070098471034A6
:10025000AC42F6D3FFF74EFF84330008A433000806
:10026000202A04DB203A00FA02F100207047914076
:10027000C2F1200320FA03F319439040704700BFF6
:10028000FEE710B502F0B8F910BD10B504462046DF
:1002900000F088F810BD704772B600BFFEE7014657
:1002A000002291F82100022808D00420886300BFB2
:1002B000002081F8200000BF012070470868006816
:1002C00020F00E000B6818600868006820F001003C
:1002D0000B68186091F8403001209840CB6B586053
:1002E000012081F8210000BF002081F8200000BF1C
:1002F0001046E2E770B50446002594F82100022874
:1003000003D00420A063012548E02068006820F0A5
:100310000E00216808602068006820F00100216854
:1003200008601F492068884201D1012026E01C494D
:1003300014312068884201D110201FE0184928316B
:100340002068884201D1801518E015493C312068A9
:10035000884201D1801411E011495031206888424F
:1003600002D14FF4803009E00D49643120688842A1
:1003700002D14FF4801001E04FF080700849083935
:100380004860012084F8210000BF002084F820008C
:1003900000BF606B10B12046616B8847284670BD76
:1003A0000800024070B5044600F0A6F9064625464E
:1003B000681C10B104480078054400BF00F09CF9A7
:1003C000801BA842FAD370BD0C0000202DE9F8472D
:1003D0000346002294466EE14FF0010808FA02F449
:1003E000D1F8008008EA0400A0427DD1DFF8DCA249
:1003F000D1F80480A8EB0A09D0453AD014DCB8F152
:10040000030F50D009DCB8F1000F31D0B8F1010F63
:100410001CD0B8F1020F49D120E0B8F1110F18D06B
:10042000B8F1120F42D11EE0B9F5881F25D006DCC5
:10043000B9F5803F20D0B9F5801F37D11AE0B9F562
:10044000001F18D0B9F5041F30D117E0D1F80CC047
:100450002DE0D1F80C8008F1040C28E0D1F80C80D4
:1004600008F1080C23E0D1F80C8008F10C0C1EE018
:1004700000BF00BF00BF00BF00BF00BFD1F80880B1
:10048000B8F1000F02D14FF0040C0BE0D1F8088056
:10049000B8F1010F03D14FF0080C1C6102E04FF0DE
:1004A000080C5C6103E04FF0000C00E000BF00BFEF
:1004B000FF2801D8984601E003F104084646FF28CA
:1004C00002D84FEA820803E0A2F108084FEA880840
:1004D0004746D6F800804FF00F0909FA07F928EAD5
:1004E00009080CFA07F900E088E048EA0908C6F8AC
:1004F0000080D1F8048008F08058B8F1805F7DD189
:1005000000BFDFF8CC81D8F8188048F00108DFF888
:10051000C091C9F81880C846D8F8188008F00108BA
:10052000CDF8008000BF00BF4FEAB9384FEA92090A
:1005300058F829504FEA82784FEA18794FF00F089F
:1005400008FA09F825EA0805DFF88881434502D151
:100550004FF0000816E0DFF88081434502D14FF0EC
:1005600001080FE0DFF87481434502D14FF0020823
:1005700008E0DFF86C81434502D14FF0030801E049
:100580004FF004084FEA82794FEA197908FA09F81E
:1005900048EA0505DFF84C814FEA920948F82950EE
:1005A000D1F8048008F48018B8F5801F0AD1DFF86C
:1005B0003881D8F8008048EA0008DFF82C91C9F8A3
:1005C000008009E0DFF82081D8F8008028EA0008E0
:1005D000DFF81491C9F80080D1F8048008F40018FD
:1005E000B8F5001F10D1DFF8008108F10408D8F831
:1005F000008048EA0008DFF8F09000E05AE009F1D6
:100600000409C9F800800DE0DFF8DC8008F1040877
:10061000D8F8008028EA0008DFF8CC9009F1040936
:10062000C9F80080D1F8048008F40038B8F5003F1C
:100630000ED1DFF8B480A8F10408D8F8008048EAA9
:100640000008DFF8A490A9F10409C9F800800DE0C2
:10065000DFF89480A8F10408D8F8008028EA0008A0
:10066000DFF88490A9F10409C9F80080D1F804806A
:1006700008F48038B8F5803F0ED1DFF86C80A8F11F
:100680000808D8F8008048EA0008DFF85C90A9F173
:100690000809C9F800800DE0DFF84C80A8F10808CF
:1006A000D8F8008028EA0008DFF83C90A9F1080992
:1006B000C9F80080521CD1F8008028FA02F8B8F17D
:1006C000000F7FF489AEBDE8F8870000000011102C
:1006D0000010024000080140000C014000100140E1
:1006E0000014014008000140080401400AB1016102
:1006F00001E00B0403617047014800687047000087
:100700000400002070B504460CB9012070BD94F8B7
:100710003D0028B9002084F83C00204600F08CFA07
:10072000242084F83D002068006820F00100216842
:1007300008602068006840F4004021680860206874
:10074000006820F400402168086000F069FD05465B
:100750005C496068884206D85B48854201D2012026
:1007600007E0002005E05948854201D2012000E061
:100770000020012800D1C9E75548B5FBF0F62068F4
:10078000406820F03F003043216848604D49606870
:10079000884201D8701C07E04FF4967070434FF404
:1007A0007A71B0FBF1F0401C2168096A21F03F0129
:1007B00008432168086243496068884214D8681E6B
:1007C00061684900B0FBF1F0401CC0F30B00042845
:1007D00001D204203DE0681E61684900B0FBF1F0E1
:1007E000401CC0F30B0034E0A06838B9681E616893
:1007F00001EB4101B0FBF1F0401C0AE0681E6168AA
:1008000001EBC10202EB0111B0FBF1F0401C40F41E
:100810008040C0F30B0008B901201AE0A06848B975
:10082000681E616801EB4101B0FBF1F0401CC0F3B0
:100830000B000CE0681E616801EBC10202EB0111C4
:10084000B0FBF1F0401CC0F30B0040F4804040F4DA
:1008500000402168C9694CF6FF7291430843216842
:10086000C861D4E9070108432168096821F0C00183
:10087000084321680860D4E90310084321688968A7
:1008800048F2FF329143084321688860D4E90501AA
:1008900008432168C96821F0FF0108432168C86046
:1008A0002068006840F00100216808600020206492
:1008B000202084F83D000020206384F83E0000BF23
:1008C00024E70000A086010080841E0000093D008E
:1008D00040420F002DE9FE4F04460F4690469946D0
:1008E000DDE90CAB0E9E00200290FFF705FF0546E8
:1008F00094F83D00202872D119230122CA492046CC
:10090000009501F077FB10B10220BDE8FE8F00BF1B
:1009100094F83C00012801D10220F6E7012084F878
:100920003C0000BF2068006800F0010028B9206882
:10093000006840F00100216808602068006820F429
:10094000006021680860222084F83D00402084F87F
:100950003E0000202064C4F824A0A4F82AB0608DD2
:100960002085B248E0624B46424639462046CDE9F2
:10097000006501F08FFA08B10120C6E7208D88B923
:1009800000BF0020019020684069019020688069C4
:10099000019000BF00BF2068006840F4007021682B
:1009A00008604BE0208D01281AD12068006820F4EF
:1009B00080602168086072B600BF00200190206846
:1009C0004069019020688069019000BF00BF2068E5
:1009D000006840F400702168086062B62EE020E1F3
:1009E000208D022819D12068006840F40060216839
:1009F000086072B600BF0020019020684069019035
:100A000020688069019000BF00BF2068006820F462
:100A100080602168086062B610E02068006840F4D9
:100A200080602168086000BF002001902068406954
:100A3000019020688069019000BF00BFE2E0208D36
:100A400003287DD8208D012815D12A46314620461D
:100A500001F0ACFB08B1012057E720680069616A2A
:100A60000870606A401C6062208D401E2085608D89
:100A7000401E6085C6E0208D02282CD1334600221E
:100A80006B492046009501F0B5FA08B101203CE71A
:100A900072B62068006840F4007021680860206821
:100AA0000069616A0870606A401C6062208D401EA7
:100AB0002085608D401E608562B620680069616A8D
:100AC0000870606A401C6062208D401E2085608D29
:100AD000401E608596E03346002255492046009529
:100AE00001F088FA08B101200FE72068006820F4BF
:100AF00080602168086072B620680069616A0870C9
:100B0000606A401C6062208D401E2085608D401E02
:100B10006085484800681921B0FBF1F04FF47A7104
:100B2000B0FBF1F0C0EBC00000EB8000029000BF12
:100B30000298401E02900298A8B90020206300E0AD
:100B400039E0202084F83D00002084F83E00206C2D
:100B500040F02000206462B600BF002084F83C0012
:100B600000BF0120D1E620684069C0F38000002862
:100B7000DED02068006840F40070216808602068BA
:100B80000069616A0870606A401C6062208D401EC6
:100B90002085608D401E608562B620680069616AAC
:100BA0000870606A401C6062208D401E2085608D48
:100BB000401E608526E02A463146204601F0F6FABE
:100BC00008B10120A1E620680069616A0870606AC6
:100BD000401C6062208D401E2085608D401E608517
:100BE00020684069C0F3800060B120680069616AD4
:100BF0000870606A401C6062208D401E2085608DF8
:100C0000401E6085208D00287FF419AF202084F8D5
:100C10003D00002084F83E0000BF84F83C0000BF87
:100C200073E6022071E60000020010000000FFFFE2
:100C3000040001001000002010B586B0044600201A
:100C4000029003900490059015492068884225D1B0
:100C500000BF1448806940F00800124988610846C6
:100C6000806900F00800019000BF00BFC020029022
:100C7000122003900320059002A90B48FFF7A6FB62
:100C800000BF0848C06940F400100649C861084622
:100C9000C06900F40010019000BF00BF06B010BD95
:100CA0000054004000100240000C0140034800685E
:100CB000034909780844014908607047040000208E
:100CC0000C00002010B50848006840F010000649EC
:100CD0000860032000F0A8F80F2000F007F800F0EB
:100CE0002BF8002010BD00000020024070B5044623
:100CF0000E4800784FF47A71B1FBF0F00C490968A6
:100D0000B1FBF0F5284600F0B5FD08B1012070BD3B
:100D1000102C07D200222146501E00F047F805484B
:100D2000046001E00120F2E70020F0E70C00002061
:100D3000100000200800002008B500BF114880699D
:100D400040F001000F4988610846806900F0010009
:100D5000009000BF00BF00BF0846C06940F080504F
:100D6000C8610846C06900F08050009000BF00BF15
:100D700000BF0549486820F0E06040F0007048601E
:100D800000BF08BD001002400000014001460846B7
:100D9000002809DB00F01F0301229A4043099B0051
:100DA00003F1E023C3F8002100BF70472DE9F05F95
:100DB00080460D461646002701F008FF07463946D3
:100DC0002A46334601F00700C0F1070ABAF1040FC2
:100DD00002D94FF0040A01E0C0F1070AD14600F140
:100DE000040ABAF1070F02D24FF0000A01E0A0F1A5
:100DF000030AD4464FF0010A0AFA09FAAAF1010AD5
:100E00000AEA020A0AFA0CFA4FF0010B0BFA0CFB81
:100E1000ABF1010B0BEA030B4AEA0B0421464046F7
:100E200001F0DCFEBDE8F09F00BF00F00702064BBA
:100E300019684FF6FF031940044B0B4343EA0221A4
:100E4000014B196000BF70470CED00E00000FA058F
:100E5000012001490862704700000E422DE9F04769
:100E600006464FF00008002500270024A146012E69
:100E700031D0022E56D0102E5FD13248446800681F
:100E800000F0807008B33048C4F38341475C04F439
:100E9000803078B12B484068C0F340402B4911F8AE
:100EA000008004F4803040B12948B0FBF8F000FB2A
:100EB00007F502E0274807FB00F52248406800F4E8
:100EC0008000B0F5800F01D1A94603E0680003213E
:100ED000B0FBF1F932E01B48046A04F44070B0F54D
:100EE000807F05D104F0020010B14FF4004918E0F2
:100EF00004F44070B0F5007F07D11248406A00F05A
:100F0000020010B149F640490BE004F44070B0F51E
:100F1000407F06D10B48006800F4003008B14FF262
:100F200024490BE000F08CF906494968C1F381318E
:100F3000491C4900B0FBF1F900E000BF00BF484682
:100F4000BDE8F087001002405A3300086A330008F9
:100F500000127A0000093D00F8B50446002600257D
:100F6000207800F0010000286BD000274348C069BA
:100F700000F0805070B900BF4048C06940F0805018
:100F80003E49C8610846C06900F08050009000BF2B
:100F900000BF01273A48006800F48070B0B93848B3
:100FA000006840F4807036490860FFF7A5FB0646EC
:100FB00006E0FFF7A1FB801B642801D90320F8BDE0
:100FC0002F48006800F480700028F2D02B48006A97
:100FD00000F440752DB3A08800F44070A84220D0E2
:100FE0002648006A20F44075012026490860002048
:100FF00008602248056205F0010090B1FFF77CFB14
:10100000064608E0FFF778FB801B41F288318842F2
:1010100001D90320D3E71948006A00F00200002834
:10102000F0D01648006A20F4407061680843134904
:101030000862012F04D10846C06920F08050C861C1
:1010400000BF207800F00200022807D10B4840685A
:1010500020F44040A168084308494860207800F027
:101060001000102807D10548406820F48000E1688E
:101070000843024948600020A1E700000010024038
:10108000007000404004424270B504460D460CB961
:10109000012070BD5A48006800F00700A8420ED237
:1010A0005748006820F00700284355490860084663
:1010B000006800F00700A84201D00120E9E720788D
:1010C00000F0020002281DD1207800F0040004285E
:1010D00005D14C48406840F4E0604A4948602078B7
:1010E00000F00800082805D14648406840F46050E8
:1010F000444948604348406820F0F000A168084334
:1011000040494860207800F0010078B36068012809
:1011100006D13C48006800F4003090B90120B8E7DF
:101120006068022806D13748006800F0007040B9B6
:101130000120AEE73348006800F0020008B9012042
:10114000A7E73048406820F00300616808432D4954
:101150004860FFF7D1FA064609E0FFF7CDFA801B99
:1011600041F28831884202D9032092E707E02548FE
:10117000406800F00C006168B0EB810FEDD12048B1
:10118000006800F00700A8420ED91D48006820F052
:10119000070028431A4908600846006800F0070065
:1011A000A84201D0012074E7207800F00400042850
:1011B00007D11448406820F4E060E1680843114911
:1011C0004860207800F00800082808D10D484068E1
:1011D00020F46050216940EAC1000A49486000F0EB
:1011E0003FF808494968C1F30311074A515CC840F8
:1011F0000649086006480068FFF778FD002048E7C8
:1012000000200240001002406C3300081000002053
:10121000080000200148006870470000100000200E
:1012200000B5FFF7F7FF04494968C1F30221034AFB
:10123000515CC84000BD0000001002407C33000833
:1012400000B5FFF7E7FF04494968C1F3C221034A2B
:10125000515CC84000BD0000001002407C33000813
:1012600070B500210022002400230020134D69687E
:1012700001F00C05F5B1042D02D0082D19D101E0C3
:101280000F4819E00F4DC1F38346AB5D01F4803583
:1012900055B10A4D6D68C5F340450B4E725D084D62
:1012A0005D43B5FBF2F402E0084D03FB05F4204674
:1012B00002E000BF024800BF00BF70BD0010024046
:1012C00000127A00483300085833000800093D0036
:1012D000F8B504460CB90120F8BD207800F00100F3
:1012E000002878D0F848406800F00C0004280CD0A2
:1012F000F548406800F00C00082811D1F248406819
:1013000000F48030B0F5803F0AD1EF48006800F467
:10131000003000285FD0606800285CD10120DBE746
:1013200000BF6068B0F5803F06D1E748006840F430
:101330008030E549086028E0606858B9E2480068F4
:1013400020F48030E04908600846006820F48020DE
:1013500008601AE06068B0F5A02F0BD1DA48006889
:1013600040F48020D84908600846006840F4803086
:1013700008600AE0D448006820F48030D249086050
:101380000846006820F48020086000BF606888B1CB
:10139000FFF7B2F9054606E0FFF7AEF9401B6428F7
:1013A00001D9032098E7C848006800F400300028FD
:1013B000F2D010E0FFF7A0F9054606E0FFF79CF930
:1013C000401B642801D9032086E7BF48006800F469
:1013D00000300028F2D1207800F00200022857D116
:1013E000B948406800F00C0050B1B748406800F0C0
:1013F0000C00082818D1B448406800F4803098B92F
:10140000B148006800F0020020B12069012801D035
:10141000012061E7AC48006820F0F800616940EA0B
:10142000C100A949086033E02069E8B10120A7495B
:101430000860FFF761F9054606E0FFF75DF9401B1C
:10144000022801D9032047E79F48006800F0020006
:101450000028F2D09C48006820F0F800616940EA5A
:10146000C1009949086013E0002098490860FFF71F
:1014700043F9054606E0FFF73FF9401B022801D972
:10148000032029E79048006800F002000028F2D10C
:10149000207800F0080008282DD1A069B8B10120FB
:1014A0008B490860FFF728F9054606E0FFF724F9A5
:1014B000401B022801D903200EE78348406A00F050
:1014C00002000028F2D0012001F0D4F813E000203F
:1014D0007F490860FFF710F9054606E0FFF70CF9B1
:1014E000401B022801D90320F6E67748406A00F045
:1014F00002000028F2D1207800F00400042873D103
:1015000000277148C06900F0805070B900BF6E4874
:10151000C06940F080506C49C8610846C06900F05D
:101520008050009000BF00BF01276A48006800F4A7
:101530008070B0B96748006840F480706549086001
:10154000FFF7DAF8054606E0FFF7D6F8401B6428F7
:1015500001D90320C0E65F48006800F480700028CD
:10156000F2D000BFE068012806D15748006A40F079
:1015700001005549086227E0E06858B95248006AFE
:1015800020F00100504908620846006A20F004007B
:10159000086219E0E06805280BD14B48006A40F06A
:1015A0000400494908620846006A40F001000862E8
:1015B0000AE04548006A20F00100434908620846F5
:1015C000006A20F00400086200BFE068A0B1FFF7E5
:1015D00093F8054609E0FFF78FF8401B41F2883188
:1015E000884202D9032077E622E03748006A00F0FB
:1015F00002000028EFD012E0FFF77EF8054608E071
:10160000FFF77AF8401B41F28831884201D9032064
:1016100062E62D48006A00F002000028F0D1012F98
:1016200005D12948C06920F080502749C86100BF12
:10163000E069C8B32448406800F00C00082860D076
:10164000E069022848D1002020490866FFF754F8D5
:10165000054606E0FFF750F8401B022801D9032099
:101660003AE61948006800F000700028F2D1206ABC
:10167000B0F5803F07D11448406820F40030A168DD
:10168000084311494860D4E9080108430E494968F4
:1016900021F4741108430C49486001200B49086685
:1016A000FFF72AF8054607E03DE0FFF725F8401B65
:1016B000022801D903200FE60348006800F00070FB
:1016C0000028F2D02FE0000000100240000042424B
:1016D0008004424200700040002014490866FFF771
:1016E0000BF8054606E0FFF707F8401B022801D972
:1016F0000320F1E50E48006800F000700028F2D1E8
:1017000011E0E069012800D1E6E50948466806F4E1
:101710008031206A814204D106F47011606A8142EE
:1017200001D00120D8E50020D6E5000000004242AB
:101730000010024070B5044600250CB9012070BDB0
:10174000607C20B900202074204600F053F802206D
:101750006074204600F06EF818B104206074012017
:10176000EDE7204600F09AFF18B1042060740120D4
:10177000E5E72068406820F0070021684860A0681D
:1017800028B11B48006820F001001949086018487A
:10179000001F006820F46070A16808431449091F05
:1017A00008606068401C08B1656809E00120FFF727
:1017B00055FB05461DB9042060740120BFE76D1E6E
:1017C000C5F3034021688860A8B22168C86020463C
:1017D00000F081FF18B1042060740120AFE7002100
:1017E000E17301216173A173012060740020A6E7F9
:1017F000306C004038B504460B492068884212D14D
:10180000FFF726FB00BF0948C06940F000600749A8
:10181000C8610846C06900F00060009000BF00BFCA
:1018200001200349086038BD002800400010024034
:101830003C04424270B5044600250CB9012070BD3D
:101840002068406820F0080021684860FEF754FFD7
:10185000054607E0FEF750FF401BB0F57A7F01D93F
:101860000320ECE72068406800F008000028F1D071
:101870000020E4E770B504462546681EB0F1807F7D
:1018800001D301200FE0681E4FF0E02148610F21D5
:101890004FF0FF3001F0A2F900204FF0E021886105
:1018A00007200861002070BDF8B504460E461746B3
:1018B00094F8420020282ED106B10FB90120F8BDBE
:1018C00001202063002060633A463146204601F043
:1018D000B5F80546EDB9206B012819D100BF0020ED
:1018E000009020680068009020684068009000BF69
:1018F00000BF00BF00BF21680C3151E8001F41F05C
:10190000100021680C3141E80002002AF3D100E008
:1019100001252846D3E70220D1E7000070B505462F
:101920000C4605492868884203D1204600F008FD8E
:1019300000E000BF70BD00000044004070470000A0
:101940002DE9F84F0446206805682068C6682068BD
:1019500047694FF00009CA4605F00F09B9F1000FB9
:101960000AD105F0200038B106F0200020B1204651
:1019700000F068FFBDE8F88FB9F1000F7BD007F0E9
:10198000010018B906F49070002874D005F0010029
:1019900030B106F4807018B1606C40F001006064F2
:1019A00005F0040030B107F0010018B1606C40F0A0
:1019B0000200606405F0020030B107F0010018B1C8
:1019C000606C40F00400606405F0080048B106F067
:1019D000200010B907F0010018B1606C40F0080059
:1019E0006064606C002845D005F0200028B106F046
:1019F000200010B1204600F025FF20684069C0F3A8
:101A0000801A606C00F0080010B9BAF1000F2CD0F9
:101A1000204600F0D1FE2068406900F0400000B38D
:101A200000BF00BF2168143151E8001F21F04000C1
:101A30002168143141E80002002AF3D100BFE06BB5
:101A400050B17748E16B4863E06BFEF753FC88B117
:101A5000E06B416B88470DE02046FFF76FFF09E020
:101A600009E02046FFF76AFF04E02046FFF766FF23
:101A7000002060647EE7206B012877D105F010001C
:101A8000002873D006F010000028FAD000BF002014
:101A9000009020680068009020684068009000BFB7
:101AA00000BF2068406900F0400000285FD0E06B74
:101AB000006840681FFA80F8B8F1000F55D0A08D7B
:101AC000404552DDA4F82E80E06B8069202843D089
:101AD00000BF00BF21680C3151E8001F21F4807065
:101AE00021680C3141E80002002AF3D100BF00BF99
:101AF00000BF2168143151E8001F21F00100216866
:101B0000143141E80002002AF3D100BF00BF00BF3A
:101B10002168143151E8001F21F040002168143180
:101B200041E80002002AF3D100BF202084F84200DF
:101B30000020206300BF00BF21680C3151E8001F66
:101B400021F0100021680C3141E80002002AF3D195
:101B500000BFE06BFEF7A3FB02206063A08DE28D67
:101B6000801A81B22046FFF7D9FE03E742E0A08D3C
:101B7000E18D401A1FFA80F8E08DD0B3B8F1000F64
:101B800037D000BF00BF21680C3151E8001F21F49D
:101B9000907021680C3141E80002002AF3D100BFA7
:101BA00000BF00BF2168143151E8001F21F001007F
:101BB0002168143141E80002002AF3D100BF20203F
:101BC00084F842000020206300BF00BF21680C3170
:101BD00051E8001F21F0100021680C3141E800029B
:101BE000002AF3D100BF0220606341462046FFF780
:101BF00095FEBFE605F0800030B106F0800018B118
:101C0000204600F03BFFB5E605F0400030B106F09D
:101C1000400018B1204600F005FEABE600BFA9E683
:101C2000A527000810B504460CB9012010BDA06915
:101C300000B100E000BF94F8410028B9002084F80A
:101C40004000204600F02AF8242084F84100206853
:101C5000C06820F400502168C860204600F070FE83
:101C60002068006920F4904021680861206840697C
:101C700020F02A00216848612068C06840F40050C4
:101C80002168C86000206064202084F8410084F846
:101C900042000020606300BFC8E7000010B586B0B6
:101CA0000446002002900390049005903749206874
:101CB00088422FD100BF3648806940F480403449C3
:101CC00088610846806900F48040019000BF00BF31
:101CD00000BF0846806940F00400886108468069BA
:101CE00000F00400019000BF00BF481502900220E0
:101CF00003900320059002A92648FEF767FB4FF4E6
:101D00008060029000200390049002A92148FEF711
:101D10005DFB39E020492068884235D100BF1C486E
:101D2000C06940F400301A49C8610846C06900F42F
:101D30000030019000BF00BF00BF0846806940F03E
:101D4000040088610846806900F00400019000BF2B
:101D500000BF04200290022003900320059002A9F6
:101D60000C48FEF733FB08200290002003900490FB
:101D700002A90848FEF72AFB002211462620FFF799
:101D800015F82620FFF702F806B010BD0038014014
:101D900000100240000801400044004070472DE957
:101DA000F84F04460E46174699464FF0000A94F83D
:101DB000410020284AD106B117B90120BDE8F88FAB
:101DC00000206064212084F84100FEF795FC8246E3
:101DD000A784E784A068B0F5805F04D1206910B9BA
:101DE0000025B04602E035464FF000081BE05346A0
:101DF000002280212046CDF8009000F06FFE08B14F
:101E00000320DBE745B9B8F80000C0F308002168FB
:101E1000486008F1020803E02878216848606D1CDA
:101E2000E08C401EE084E08C0028E0D15346002284
:101E300040212046CDF8009000F050FE08B103206C
:101E4000BCE7202084F841000020B7E70220B5E776
:101E5000704700BFFEE7014608684069C0F3802074
:101E6000B0B16FF480600A685061002008632020E0
:101E700081F83D00002081F83E00086C40F004002D
:101E8000086400BF002081F83C0000BF01207047BB
:101E90000020FCE72DE9F84304460F461546994615
:101EA000DDE908862068006840F4806021680860E9
:101EB0002068006840F48070216808604346002272
:101EC0004FF001112046009600F094F860B12068B0
:101ED000006800F48070B0F5807F02D14FF400708C
:101EE00020640320BDE8F88307F0FE002168086144
:101EF000334642463E49204600F0DBF808B1012057
:101F0000F0E700BF00200090206840690090206842
:101F10008069009000BF00BF32464146204600F075
:101F20008AF950B1206C042805D12068006840F47B
:101F30000070216808600120D4E7B9F1010F03D1D6
:101F4000E8B22168086117E0C5F30720216808613D
:101F500032464146204600F06EF950B1206C04280C
:101F600005D12068006840F40070216808600120F5
:101F7000B8E7E8B22168086132464146204600F0E1
:101F80005AF950B1206C042805D12068006840F44B
:101F90000070216808600120A4E72068006840F410
:101FA000807021680860434600224FF001112046EE
:101FB000009600F01FF858B12068006800F48070A7
:101FC000B0F5807F02D14FF400702064032089E7D0
:101FD000F8B240F0010021680861334642460449E6
:101FE000204600F066F808B101207BE7002079E781
:101FF000020001002DE9F04104460D4617461E4639
:10200000DDF8188038E0701CA8B3FEF775FBA0EB74
:102010000800B04200D876BBC5F3074001280AD1BA
:1020200020684069A9B20840A9B2884201D10120C4
:102030000BE0002009E020688069A9B20840A9B23D
:10204000884201D1012000E00020B84214D10020D4
:102050002063202084F83D00002084F83E00206C9E
:1020600040F02000206400BF002084F83C0000BF46
:102070000120BDE8F081FFE7C5F3074001280AD140
:1020800020684069A9B20840A9B2884201D1012064
:102090000BE0002009E020688069A9B20840A9B2DD
:1020A000884201D1012000E00020B842ABD00020DE
:1020B000DFE72DE9F04104460D4616461F4658E07D
:1020C00020684069C0F38020E8B12068006840F4CF
:1020D0000070216808606FF480602168486100200A
:1020E0002063202084F83D00002084F83E00206C0E
:1020F00040F00400206400BF002084F83C0000BFD2
:102100000120BDE8F081701C90B3FEF7F5FAC01B0A
:10211000B04200D866BBC5F3074001280AD1206849
:102120004069A9B20840A9B2884201D101200BE060
:10213000002009E020688069A9B20840A9B288425D
:1021400001D1012000E0002090B900202063202070
:1021500084F83D00002084F83E00206C40F0200010
:10216000206400BF002084F83C0000BF0120C8E7C5
:10217000FFE7C5F3074001280AD120684069A9B2EA
:102180000840A9B2884201D101200BE0002009E0FB
:1021900020688069A9B20840A9B2884201D1012013
:1021A00000E0002000288BD00020AAE770B504468C
:1021B0000D46164637E020684069C0F30010A0B114
:1021C0006FF010002168486100202063202084F80F
:1021D0003D00002084F83E00206C206400BF0020F9
:1021E00084F83C0000BF012070BDFEF785FA801B1B
:1021F000A84200D8BDB920684069C0F3801090B9EA
:1022000000202063202084F83D00002084F83E0058
:10221000206C40F02000206400BF002084F83C00C7
:1022200000BF0120E0E720684069C0F3801000286B
:10223000C1D00020D8E770B504460D46164625E00B
:102240002046FFF708FE08B1012070BD681CE8B108
:10225000FEF752FA801BA84200D8BDB92068406939
:10226000C0F3C01090B900202063202084F83D0006
:10227000002084F83E00206C40F02000206400BF65
:10228000002084F83C0000BF0120DEE720684069A0
:10229000C0F3C0100028D3D00020D6E710B500F05E
:1022A000C7F94FF4806205490548FFF7FDFA05A01C
:1022B00000F058F806A000F055F810BD14050020F5
:1022C000CC0400205043415330322C3130303000A8
:1022D0005043415330342C330000000070B50546A4
:1022E0000C462846FDF766FF064631462846FDF7B0
:1022F00044FF002020800E48008800B970BD0C48C3
:1023000002880C492846FDF71FFF0BA12846FDF760
:102310003FFF38B109A12846FDF73AFF10B1044844
:102320000088208000200249088000BFE6E7000006
:102330001400002014050020474741005458540061
:1023400010B504464FF4806203490448FFF7ACFA25
:102350000348048010BD000014050020CC040020B8
:10236000140000202DE9F041044664212B48FDF7BC
:1023700004FF2578012003E0215C4D40411CC8B2D8
:10238000215C0029F8D12B46224625A1234800F0E4
:1023900009FC5C2125A0FDF714FF28B15C2123A0D6
:1023A000FDF70FFF401C00E020A007462F21FDF79E
:1023B00008FF002811D05C211CA0FDF702FF28B106
:1023C0005C211AA0FDF7FDFE401C00E017A00746A7
:1023D0002F21FDF7F6FE401C0BE05C2113A0FDF75A
:1023E000F0FE28B15C2111A0FDF7EBFE401C00E0DF
:1023F0000EA00646094B2522314614A000F0C2FB70
:102400000648FDF7D7FE86B24FF4FA633246034919
:102410001748FFF7C4FCBDE8F08100001409002054
:102420002425732A253032580D0A00002E2E5C49CF
:102430006E665C415436353538525C496E665F4194
:102440005436353538522E63000000005B2532309B
:10245000733A2534645D202D2D20B8F8475053B7CA
:10246000A2CBCDD6B8C1EE3A2025730D0A000000EC
:10247000CC04002010B500F08BF810BD10B5012081
:1024800000F002F810BD00001FB5044600200390C4
:10249000002220210F48FEF729F90420FDF7F5FE60
:1024A0004FF4FA60012103AA0B46CDE90021029006
:1024B00022464F210848FEF70DFA01222021054847
:1024C000FEF714F90B20FDF7E0FE9DF80C0004B0B8
:1024D00010BD0000000C01401C04002010B5C320FA
:1024E000FFF7D2FF10BD000000B585B000200190BD
:1024F00002900390049000BF2348806940F01000D0
:10250000214988610846806900F01000009000BFF2
:1025100000BF00BF0846806940F02000886108467F
:10252000806900F02000009000BF00BF00BF084697
:10253000806940F0040088610846806900F004006A
:10254000009000BF00BF00BF0846806940F008004F
:1025500088610846806900F00800009000BF00BF55
:10256000012228210948FEF7C1F828200190012006
:102570000290002003900220049001A90348FDF777
:1025800025FF05B000BD000000100240000C014016
:1025900010B50B480B4908600B48486000210948FA
:1025A0008160C1604FF4804101610021416181611E
:1025B000C1610162FEF7A6F808B1FDF76DFE10BD1E
:1025C000005400401C040020A086010010B50848FB
:1025D000084908604FF0FF3048604FF480710548AB
:1025E0008160FFF7A7F808B1FDF756FE10BD0000A7
:1025F000002800407004002010B50B480B4908600B
:102600004FF4E1304860002108488160C1600161F9
:102610000C21416100218161C161FFF703FB08B119
:10262000FDF73AFE10BD0000003801408404002090
:1026300010B50B480B4908604FF416504860002154
:1026400008488160C16001610C2141610021816104
:10265000C161FFF7E7FA08B1FDF71EFE10BD0000EB
:1026600000440040CC04002000BFFEE700BFFEE7AE
:102670007047000008B508490968C9084FF47A7224
:10268000B1FBF2F14143009100BF00BF00994A1E27
:1026900000920029F9D108BD1000002070B5044651
:1026A0000025FEF729F8054607E0FEF725F8401B50
:1026B000B0F57A7F01D9032070BD2068406800F032
:1026C00020000028F1D02068406840F01000216808
:1026D00048600020F0E770B5044600252068406897
:1026E00020F0100021684860FEF706F8054607E074
:1026F000FEF702F8401BB0F57A7F01D9032070BDC8
:102700002068406800F020000028F1D00020F6E7A3
:10271000704710B5FEF7CAFA10BD00B593B0282176
:1027200009A8FDF72AFD142104A8FDF726FD0020C5
:102730000090019002900390052009904FF48030A2
:102740000A9000200B9001200C900D900220109018
:10275000C10311914FF4E011129109A8FEF7B8FDE1
:1027600008B1FDF799FD0F2004900220059000208C
:1027700006904FF48060079000200890022104A882
:10278000FEF782FC08B1FDF787FD012000900002F2
:1027900001906846FEF7E0FB08B1FDF77DFD13B040
:1027A00000BD704770B505466C6A0020E085E08486
:1027B0002046FFF7C3F870BD00BF00BF02680C32AF
:1027C00052E8002F22F4907102680C3242E80013A4
:1027D000002BF3D100BF00BF00BF0268143252E8E3
:1027E000002F22F001010268143242E80013002B8E
:1027F000F3D100BF016B01290ED100BF00BF0268F9
:102800000C3252E8002F22F0100102680C3242E82C
:102810000013002BF3D100BF202180F842100021CB
:102820000163704710B504462068C06820F040007E
:102830002168C860202084F841002046FFF708FB8B
:10284000002010BDF8B5044694F84200222875D146
:10285000A068B0F5805F0CD1206950B90025A66A48
:1028600020684068C0F308003080A06A801CA06225
:1028700015E0A56A0026A068B0F5805F03D0A068C7
:1028800028B9206918B920684068287004E02068D9
:10289000406800F07F002870A06A401CA062E08DB4
:1028A000401E80B2E085002846D12068C06820F034
:1028B00020002168C8602068C06820F4807021680A
:1028C000C8602068406920F001002168486120202C
:1028D00084F8420000206063206B012826D100208C
:1028E000206300BF00BF21680C3151E8001F21F0B8
:1028F000100021680C3141E80002002AF3D100BF2A
:102900002068006800F0100010280AD100BF0020E5
:10291000009020680068009020684068009000BF28
:1029200000BFA18D2046FEF7F9FF02E02046FFF729
:1029300035FA0020F8BD01E00020FBE70220F9E7AE
:1029400070B504462168096921F44051E2681143D9
:10295000226811612269A1681143626941EA020596
:102960002168C96841F20C62914329432268D16011
:102970002168496921F44071A269114322685161BB
:102980002D4A2168914202D1FEF75AFC01E0FEF780
:1029900047FC00EBC00101EB001162689200B1FB43
:1029A000F2F100EBC00202EB001263689B00B2FB85
:1029B000F3F26423B2FBF3F202EBC20303EB021265
:1029C000A1EB8201322202EB01116422B1FBF2F190
:1029D00001F0F00100EBC00202EB001263689B0003
:1029E000B2FBF3F26423B2FBF3F201EB021200EB51
:1029F000C00101EB001163689B00B1FBF3F100EB38
:102A0000C00303EB00136668B600B3FBF6F364265D
:102A1000B3FBF6F303EBC30606EB0313A1EB830151
:102A2000322303EB01116423B1FBF3F101F00F0139
:102A300011442268916070BD0038014010B5034612
:102A400099629A85DA8500205864222083F8420032
:102A5000186928B11868C06840F480701C68E0608C
:102A60001868406940F001001C6860611868C0681F
:102A700040F020001C68E060002010BD014691F885
:102A80004100212828D18868B0F5805F0BD1086902
:102A900048B90A6A1088C0F308000B685860086AD1
:102AA000801C086205E00B6A581C086218780B68E5
:102AB0005860C88C401E80B2C88458B90868C06885
:102AC00020F080000B68D8600868C06840F04000C3
:102AD0000B68D860002070470220FCE72DE9F04128
:102AE00004460D4617469846069E34E0701C88B38F
:102AF0002EB1FDF701FEA0EB0800B0422BD900BFBC
:102B000000BF21680C3151E8001F21F4D07021680A
:102B10000C3141E80002002AF3D100BF00BF00BF22
:102B20002168143151E8001F21F00100216814319F
:102B300041E80002002AF3D100BF202084F84100C0
:102B400084F8420000BF002084F8400000BF03204A
:102B5000BDE8F081FFE7206800682840A84201D165
:102B6000012000E00020B842C0D00020F0E70000C3
:102B700010B50248FEF7E4FE10BD0000CC040020B2
:102B800000BFFEE70FB4054B10B503A9044A029835
:102B900000F048F810BC5DF814FB00008530000818
:102BA000180000200FB4084B10B504A902AA03981E
:102BB00000F038F8044602A9002000F05EFA204632
:102BC00010BC5DF814FB00007B3000080248006870
:102BD000C0F30220704700000CED00E010B50028A3
:102BE00004DB0A07130E054A135406E00A07140E05
:102BF000034A00F00F031B1FD45410BD00E400E093
:102C000018ED00E002E008C8121F08C1002AFAD13E
:102C100070477047002001E001C1121F002AFBD15C
:102C2000704700002DE9FF4F8DB00F460546002686
:102C300006E025280BD0DDE90F1290476D1C761CAD
:102C400028780028F5D111B03046BDE8F08F002477
:102C5000A246A1460122E94900E0044315F8013FDC
:102C6000203B02FA03F00842F7D128782A2810D036
:102C70006FF02F022878A0F13001092914D80AEB4F
:102C80008A0102EB410144F0020400EB010A6D1CD1
:102C9000F0E701CF5FEA000A03D544F40054CAF11B
:102CA000000A44F002046D1C28782E2817D115F86C
:102CB000010F44F004042A280ED06FF02F02287868
:102CC000A0F1300109290AD809EB890102EB410181
:102CD00000EB01096D1CF2E757F8049B6D1C287886
:102CE0006C280FD006DC4C2817D068280DD06A2835
:102CF00014D104E0742810D07A280FD10DE044F4E8
:102D000000140AE044F4801401E044F440146978AB
:102D1000814202D104F580146D1C6D1C28786E2848
:102D20001ED00CDC632830D004DC00288BD058285F
:102D300011D19FE0642867D069280CD164E0732822
:102D40002DD004DC6F2872D0702804D194E075284F
:102D50006ED078286DD0DDE90F129047761C4BE1DC
:102D6000C4F30250022806D0032809D0042801CF5A
:102D700009D0066040E101CFF117C0E900613BE1F5
:102D800001CF068038E1067036E117F8040B8DF8A4
:102D9000000000208DF80100EB46012003E057F809
:102DA00004BB4FF0FF3061074FF0000102D40DE08B
:102DB00008F10101884649450FDA8045F8DB1BF828
:102DC00008100029F4D108E008F101018846814289
:102DD000FADB1BF808100029F6D1DDE90F23AAEB76
:102DE00008008146214600F031F9304400EB080626
:102DF00004E0DDE90F121BF8010B9047B8F1010860
:102E0000F7D221464846F2E00A21C4F302524FF0BD
:102E1000000B0891022A04D001CFC117032A09D060
:102E20000AE0FF1D27F00707F7E8020108E02CE0A1
:102E30001EE01FE000B2C117042A01D140B2C11741
:102E4000021E71F1000206DA0023D0EB030063EBEF
:102E500001012D2202E0220504D52B228DF8242029
:102E6000012203E0E20701D02022F7E7904653E079
:102E70000A210BE0102109E010214FF0000B44F073
:102E800004044FF00809089103E008214FF0000BFB
:102E90000891C4F30252022A04D001CF0021032A70
:102EA00006D006E0FF1D27F00707F7E8020103E060
:102EB00080B2042A00D1C0B24FF0000822072BD5FF
:102EC0002A78702A07D0DDF820C08CF0100C5CEA5C
:102ED0000B0C05D00EE040228DF82420012208E0E2
:102EE00050EA010306D030238DF824308DF82520D8
:102EF00002229046089B83F0080353EA0B030BD190
:102F000050EA010201D1620706D530228DF8242053
:102F10004FF00108A9F101092A78582A04D038A2F3
:102F20000B9208AA0A920BE03AA2F9E75B46089ACC
:102F3000FDF752F90B9B9B5C0A9A521E0A92137082
:102F400050EA0102F2D10A98ADEB000000F1200B2B
:102F5000600702D524F4803401E04FF00109D9451F
:102F600002DDA9EB0B0000E0002000EB0B01414467
:102F70000890AAEB010AE00306D4DDE90F232146FD
:102F8000504600F063F806444FF0000908E009A934
:102F900011F80900DDE90F12904709F10109761CCB
:102FA000C145F4DBE0030CD5DDE90F232146504693
:102FB00000F04CF8064404E0DDE90F1230209047A1
:102FC000761C0899481E08900029F5DC08E00A984C
:102FD0000A990078491C0A91DDE90F129047761C86
:102FE000BBF10001ABF1010BF1DC21465046DDE9FC
:102FF0000F2300F019F806446D1C21E60928010092
:10300000303132333435363738396162636465665E
:103010000000000030313233343536373839414220
:1030200043444546000000002DE9F04104460025D8
:103030001E461746880404D405E039462020B047D0
:103040006D1C641EF9D52846BDE8F0812DE9F041DC
:10305000044600251E469046C80301D5302700E0EF
:103060002027880404D505E041463846B0476D1C4A
:10307000641EF9D52846BDE8F0810A68531C0B6030
:103080001070704713B50C464FF47A7301226946ED
:103090000248FEF784FE00981CBD00008404002056
:1030A000FDF710FEFFF739FBFFF71EFAFFF78EFA68
:1030B000FDF7E7F85C2175A0FDF783F828B15C21E6
:1030C00072A0FDF77EF8401C00E070A005462F219D
:1030D000FDF777F888B15C216CA0FDF772F828B194
:1030E0005C216AA0FDF76DF8401C00E067A0054672
:1030F0002F21FDF766F8401C0BE05C2163A0FDF773
:1031000060F828B15C2161A0FDF75BF8401C00E08D
:103110005EA004466922214661A0FFF733FDFFF758
:10312000A9F9FFF7ABF906465C2158A0FDF749F86D
:1031300028B15C2155A0FDF744F8401C00E053A0E5
:1031400005462F21FDF73DF888B15C214FA0FDF722
:1031500038F828B15C214DA0FDF733F8401C00E0A1
:103160004AA005462F21FDF72CF8401C0BE05C21FE
:1031700046A0FDF726F828B15C2144A0FDF721F810
:10318000401C00E041A0044633466C2221464FA07B
:10319000FFF7F8FCFFF7A2F906465C213BA0FDF71C
:1031A00010F828B15C2139A0FDF70BF8401C00E0B5
:1031B00036A005462F21FDF704F888B15C2133A025
:1031C000FCF7FFFF28B15C2130A0FCF7FAFF401CA0
:1031D00000E02EA005462F21FCF7F3FF401C0BE07A
:1031E0005C212AA0FCF7EDFF28B15C2127A0FCF7A9
:1031F000E8FF401C00E025A0044633466D2221462E
:103200003CA0FFF7BFFCFFF749F83DE043494448C5
:10321000FFF764F841480088002835DD5C211BA0D9
:10322000FCF7CFFF28B15C2118A0FCF7CAFF401CB7
:1032300000E016A005462F21FCF7C3FF88B15C21F2
:1032400012A0FCF7BEFF28B15C2110A0FCF7B9FF6B
:10325000401C00E00DA005462F21FCF7B2FF401CEA
:103260000BE05C2109A0FCF7ACFF28B15C2107A0B2
:10327000FCF7A7FF401C00E004A00446284B752281
:10328000214628A0FFF77EFCC0E700002E2E2F432A
:103290006F72652F5372632F6D61696E2E6300002C
:1032A0005B253230733A2534645D202D2D20D0F318
:1032B000C4C1B6A8CEBBC6F7CFEEC4BFD6AEB6A8C3
:1032C000CEBBC6F72E2E2E2E0D0A00005B25323007
:1032D000733A2534645D202D2D20647333353532E7
:1032E0005F636869705F6964203D202523780D0A5B
:1032F000000000005B253230733A2534645D202DD8
:103300002D206473333535325F757365725F736575
:1033100074203D202523780D0A00000000000020C5
:103320001C0000205B253230733A2534645D202D6B
:103330002D20B6C1B5BDB5C4677073CAFDBEDD3AF8
:10334000200D0A25730D0A0002030405060708096B
:103350000A0B0C0D0E0F10100102020304050607E4
:1033600008090A0B0C0D0E0F1010010200000000DE
:103370000000000001020304060708090000000025
:1033800001020304A4330008000000201C00000018
:10339000042C0008C03300081C0000205C0D000055
:1033A000142C0008000000000000000010000000C5
:1033B000010000000024F4000000000000000000F4
:04000005080000ED02
:00000001FF
