:020000040800F2
:10000000E01A002001010008F55800085F470008C9
:10001000F1580008CF1900085D61000800000000D9
:10002000000000000000000000000000DD5C00088F
:10003000AD1B000800000000F9580008DF5C000854
:100040001B0100081B0100081B0100081B01000820
:100050001B0100081B0100081B0100081B01000810
:100060001B0100081B0100081B0100081B01000800
:100070001B0100081B0100081B0100081B010008F0
:100080001B0100081B0100081B0100081B010008E0
:100090001B0100081B0100081B0100081B010008D0
:1000A0001B0100081B0100081B0100081B010008C0
:1000B0001B0100081B0100081B0100081B010008B0
:1000C0001B0100081B0100081B0100081B010008A0
:1000D0001B0100081B0100083D6100084D6100087C
:1000E0001B0100081B0100081B010008DFF80CD0F1
:1000F00000F056FF00480047B16F0008E01A0020EA
:100100000648804706480047FEE7FEE7FEE7FEE7B1
:10011000FEE7FEE7FEE7FEE7FEE7FEE76F5D0008AD
:10012000ED000008202A04DB203A21FA02F0002129
:10013000704721FA02F3D040C2F1200291400843F7
:100140001946704738B5D0E90221491E01EB41013B
:1001500002EBC1014268C1EB011102EB81010268AF
:10016000C1EB011102EB8102D0E9043101EB410145
:1001700003EB81013023A1F5527191FBF3F4174D8C
:100180006C4302EBC41291FBF3F403FB14110092D5
:100190001A2902DB124B1A4400920C2291FBF2F353
:1001A000104C6343009C04EBC313009391FBF2F3E8
:1001B00002FB13110C4A08E0491E40F2A324535CD1
:1001C0006343009C04EBC31300930029F4DC014655
:1001D000684600F0BFFD009838BD00003F0C0F00DE
:1001E0008051010067C20300E47D000840EA01037A
:1001F0009B0703D009E008C9121F08C0042AFAD2DD
:1002000003E011F8013B00F8013B521EF9D27047A0
:10021000D2B201E000F8012B491EFBD27047002248
:10022000F6E710B513460A4604461946FFF7F0FFF5
:10023000204610BD30B505462A460B4612F8010B84
:1002400013F8014B08B1A042F8D01CB1002802D02D
:100250006D1CF1E7284630BD421C10F8011B002937
:10026000FBD1801A7047034611F8012B00F8012BCF
:10027000002AF9D1184670470246C9B200E0401C76
:100280000378002BFBD102E003788B4203D0401EA1
:100290009042F9D2002070470FB400B58DB010A97C
:1002A00009900B9000914FF0FF300A9000200C90C5
:1002B00005480690054807906A4609A80F9900F07E
:1002C000A3FD0DB05DF814FB250E0008430E0008D9
:1002D0002DE9FF5F1D464FF0FF3BD5E901469146F2
:1002E0005F464FF00008A9697F1C01988847296A7A
:1002F000824688470028F6D1BAF1FF3F0CD024F49B
:10030000C064002E19DD600614D5BAF12B0F09D098
:10031000BAF12D0F0ED103E0584604B0BDE8F09FAE
:1003200044F48064A9697F1C01988847761E824640
:10033000002E02DDBAF1300F03D0B9F1000F26D044
:1003400032E0A969761E44F400747F1C0198884746
:100350008246002E05DDBAF1780F06D0BAF1580FAB
:1003600003D0B9F1000F10D01EE0B9F1000F02D098
:10037000B9F1100F18D1A969761E24F400747F1CFE
:10038000019888478246102002E0082000E00A20F9
:10039000814609E008FB0908A969761E44F4007447
:1003A0007F1C019888478246002E05DD494650464D
:1003B00000F016FD0028EDDAE96901988847A005EC
:1003C00002D46FF00100A8E7E00725D1600613D53D
:1003D000600502D5C8F1000000E0404629680A1D0A
:1003E0002A600968220501D5087015E0220701D5A9
:1003F000088011E008600FE02868011D296000688E
:10040000210502D580F8008006E0210702D5A0F87A
:10041000008001E0C0F8008038467EE72DE9FF5FEC
:10042000D2E901A74FF00008916999461446DDF81A
:1004300038B0464601988847054659EA0B0005D072
:1004400009E0A169761C019888470546216A28467B
:1004500088470028F5D1681C03D05FEACA7005D030
:1004600015E04FF0FF3004B0BDE8F09F2068011D9B
:100470002160D0F800800AE05FEACA7001D108F874
:10048000015BA169761C7F1E019888470546002FF5
:100490001ADD681C18D0B9F1000F0DD0E81705EB74
:1004A000D060421120F01F0059F822102A1A0120B2
:1004B00090400142E0D107E0BBF1000FDCD1216A9E
:1004C000284688470028D7D0E16901988847BBF1C2
:1004D000000F07D1002E05DD5FEACA7002D10021AE
:1004E00088F80010A068B84203DDBBF1000F03D00C
:1004F00017B16FF00100B6E73046B4E72DE9FF4FC2
:10050000087883B09946FF2805D0491C2D2804D0CF
:100510000024002008E000200BE00124F9E700EBB4
:10052000800003EB4000491C0B78FF2BF7D104B18E
:10053000404200230293147819461D462D2C01D009
:100540002B2C04D1521C2D2C13D000240294AA462B
:100550001478FF2C0FD00A25A3FB057801FB058139
:100560004FF0000C03FB0C11521CE3194AEB010184
:10057000EEE70124EAE7814453EA010002D019F5CD
:10058000C87F06DA03980021C0E9001107B0BDE872
:10059000F08F0025AE4E2F46DFF8B882184600F0E7
:1005A000BEFCCDE90001B9F1000002DAC9F1000496
:1005B00000E004460023A74A1AEB030B42EB045A5F
:1005C00012E0E00707D02A4633463846414600F09D
:1005D000ECF9074688462A4633461046194600F08D
:1005E000E4F905460E466410002CEAD1DDE900016D
:1005F000B9F1000F5A46534606DA00F048FA3A4677
:10060000434600F044FA05E000F0CFF93A4643468D
:1006100000F0CBF9029A0AB181F00041039AC2E9D5
:100620000001B3E72DE9FF4F1F468DB0D7E9014622
:100630004FF0FF382E2045464FF000090B90B96966
:100640006D1C0E988847396A824688470028F6D183
:10065000BAF1FF3F0AD024F4D064002E11DDBAF1C4
:100660002B0F08D0BAF12D0F0BD102E0404611B08C
:100670008DE744F48064B9696D1C0E988847824602
:10068000761E6946600501D52D2000E02B208DF8EF
:10069000000001F1010B0DF1200809E0B9696D1CA2
:1006A0000E98884782460F9844F40074761E0560C1
:1006B000002E02DDBAF1300FF0D00B998A453ED101
:1006C00044F0800406E00F99681CA9F1010944F484
:1006D00000740860B9696D1C761E0E9888478246C2
:1006E0003028F0D02BE00B998A4505D1200603D4A1
:1006F00044F08004761E18E0504605F099FE08B3D9
:100700000DF11301761E44F400748B4508D2AAF152
:1007100030000BF8010B200607D5A9F1010003E01A
:10072000200602D409F101008146A00502D50F99E7
:10073000681C0860B9696D1C0E9888478246002EB7
:10074000D1DC53E0002E51DDBAF1650F02D0BAF1D1
:10075000450F4BD1A00549D5B9696D1C24F44074EF
:10076000761E0E9888478246002E0CDD2B2804D07A
:10077000BAF12D0F07D144F48074B9696D1C0E983D
:1007800088478246761EE00501D52D2100E02B2109
:1007900008F8011BCDF82C8021E00DF12901761E0F
:1007A00044F4007488450CD2AAF1300010F0FF0028
:1007B00088F8000002D10B99884509D908F1010891
:1007C00006E0E00501D5244801E042F20F708146C1
:1007D000B9696D1C0E98884782460F980560002EF7
:1007E00004DD504605F024FE0028D6D1F9690E98A4
:1007F0008847FF208BF8000088F800000020069052
:1008000007904B466A4608A906A8FFF777FEA005A1
:1008100002D46FF001002AE714F0240F0AD0E00799
:1008200014D1DDE906123868031D3B600068C0E999
:1008300000120BE0DDE9060100F095FB0146E00740
:1008400004D13868021D3A600068016028460EE74E
:10085000000014400000F03FF1D8FFFF2DE9FE4FEB
:10086000804681EA0300C00F0C46009021F0004151
:1008700023F00045B8EB0200A94105D240462146CD
:1008800090461C460B46024623F00040104347D0DA
:10089000270DC7F30A00C3F30A510290401A0190D2
:1008A00040286BDAC3F3130040F4801B0098924693
:1008B00020B10023D2EB030A63EB0B0B01985946DE
:1008C000C0F14002504600F01EFA06460D46504662
:1008D0005946019A00F026FA10EB08006141002405
:1008E00087EA115284EAE7731A4340D0009A62B350
:1008F000019A012A4FEA075215DC001B61EB020145
:100900004FF0004202EA0752CDE90042001C41F5D7
:10091000801132462B4600F0B4FA03B0BDE8F08FE8
:1009200040462146F9E7001B61EB0201001C41F53E
:10093000801300185B412018A2F5001747EB030154
:1009400040EAD570B6196D4111E06D084FEA3606E0
:1009500045EAC0754FEA0752001B61EB0201001C1B
:1009600041F5801149084FEA3000001951413246E3
:100970002B4603B0BDE8F04F00F074BA0098012296
:1009800040000023D0EB020263EBE07300982146A5
:100990004FEAE074B8EB000061EB0401E9E783F093
:1009A00000435BE781F0004158E72DE9FE4F81EA03
:1009B000030404F0004421F0004100944FF0000BC8
:1009C00023F0004350EA01045ED052EA03045BD0F6
:1009D000C3F30A54C1F30A552C44A4F2F33401942E
:1009E000A0FB0254C1F3130141F48011C3F31303BC
:1009F00043F4801301FB024400FB034E840A970A70
:100A000044EA815447EA8357A4FB076802958D0A9C
:100A100005FB07854FEA932C04FB0C542705029D28
:100A20004FEA065847EA1637B5EB08056EEB070C98
:100A3000870E920E47EA811742EA8312A7FB020152
:100A4000B6EB0B0164EB00042B0D43EA0C335E188C
:100A500044EB1C50DA465146E7FB0201C5F3130490
:100A60004FEA0B3343EA14534FEA0432019C43EA42
:100A70000603A4F10C040294009CCDE900B400F03C
:100A800000FA03B0BDE8F08F00200146F9E72DE938
:100A9000F04D81EA030404F0004B21F000451446B8
:100AA0004FF0000A23F0004150EA050220D054EA3A
:100AB00001021DD0C5F30A570246C5F31303C1F363
:100AC0001300C1F30A5640F4801543F48013A7EBDA
:100AD0000608101BD64608F2FD3873EB050002D35A
:100AE00008F1010801E092185B41B8F1000F03DA48
:100AF00000200146BDE8F08D00204FF4801106462D
:100B000084460EE0171B73EB050705D3121B63EB3E
:100B1000050306434CEA010C49084FEA30009218DD
:100B20005B4150EA0107EDD152EA030012D082EA9C
:100B3000040083EA0501084305D0101BAB4106D22F
:100B40000122002306E000224FF0004302E06FF094
:100B5000010253101AEB06004CEB085110EB0A008F
:100B600041EB0B01BDE8F04D00F07CB90EB5C10FB3
:100B700080EAE0700844CA07002140F233438DE860
:100B80000E000A460B4600F07CF903B000BD0EB51E
:100B900040F2334102910021CDE900110A460B4693
:100BA00000F06FF903B000BD70B5C1F30A5201F057
:100BB00000450024C1F3130140F2FF3341F48011DA
:100BC0009A4201DA002070BD40F233439A42A2F209
:100BD000334203DC5242FFF7A5FA00E090402C4379
:100BE000F1D0404270BDC1F30A5210B5C1F31301F8
:100BF00040F2FF3341F480119A4201DA002010BD27
:100C000040F233439A42A2F2334203DC5242FFF7EE
:100C100089FA10BD904010BD30B5041E71F100047A
:100C200004DB4FF00044404264EB0101141E73F1F9
:100C3000000405DB1C464FF00043524263EB040303
:100C40008B4208BF824230BD30B5041E71F10004F2
:100C500004DB4FF00044404264EB0101141E73F1C9
:100C6000000405DB1C464FF00043524263EB0403D3
:100C7000994208BF904230BD30B50B460146002076
:100C80002022012409E021FA02F59D4205D303FA4E
:100C900002F5491B04FA02F52844151EA2F10102CF
:100CA000F1DC30BD2DE9F05F0546002092469B4601
:100CB00088460646814640241BE028464146474672
:100CC0002246FFF72FFA53465A46C01A914110D3D5
:100CD00011461846224600F016F82D1A67EB010857
:100CE0004F4622460120002100F00DF817EB0009C5
:100CF0004E41201EA4F10104DFDC484631462A465D
:100D00004346BDE8F09F202A04DB203A00FA02F1B6
:100D1000002070479140C2F1200320FA03F31943E9
:100D200090407047202A06DBCB17203A41FA02F0A8
:100D300043EAE07306E041FA02F3D040C2F1200238
:100D40009140084319467047014900F003B800007C
:100D5000B412002010B500683C22B0FBF2F302FB95
:100D60001303B0FBF2F00B60B0FBF2F302FB1303D2
:100D7000B0FBF2F018224B60B0FBF2F302FB13035E
:100D8000B0FBF2F0021D8B600723B2FBF3F403FB10
:100D90001422800040F2B55300F66C308A61B0FB3B
:100DA000F3F2B0FBF3F403FB1400443280084A6111
:100DB000C8613B2802D3920700D0401C0022074C98
:100DC00013460A61E25C824203D8801A5B1C0B6105
:100DD000F8E7401CC860084610BD0000F07D000820
:100DE0003A2800D2303820F02002412A01D3A2F163
:100DF0003700884201D34FF0FF307047026811443A
:100E00001378016018467047D16004495161044964
:100E1000116200211161114600F0DAB8FD0D0008E1
:100E2000C50F0008426842B1016811F8013B23B1C7
:100E3000521EC0E90012184670470121C160881E89
:100E4000704742685AB1C368016843B983688B42EE
:100E500005D0491E521CC0E90012002070474FF017
:100E6000FF30704710B5141E73F1000408DA401CFF
:100E700041F1000192185B411A4301D120F00100B9
:100E800010BD2DE9F04D92469B4611B1B1FA81F2A9
:100E900002E0B0FA80F220329046FFF734FF0446B9
:100EA0000F4640EA0A0041EA0B0153465A460843FE
:100EB00013D0114653EA010019D0C8F14002504640
:100EC000FFF730F905460E46504659464246FFF7B1
:100ED0001AFF084305D0012004E020463946BDE84A
:100EE000F08D0020054346EAE0762C4337430A980C
:100EF0006305E40AA0EB08000022FD0A44EA475417
:100F00000A3002D500200146E9E7010510196941C0
:100F1000DDE9084500196941BDE8F04DA2E70EB5CD
:100F200040F2334202920022CDE900221346FFF73D
:100F3000A8FF03B000BDC1F30A52C1F3130140F290
:100F4000FF3341F480119A4202DA002001467047D3
:100F500040F233439A42A2F2334202DC5242FFF79C
:100F6000E1B8FFF7D0BE01F0004330B421F00041FA
:100F700050EA010206D00A0DA2F56072C1F3130116
:100F8000002A02DC30BC00207047440F44EAC10450
:100F9000C100E01830BC00EBC25000F0AFB9000057
:100FA000064C074D06E0E06840F0010394E80700B6
:100FB00098471034AC42F6D3FFF79CF8D47E000873
:100FC000F47E0008C0B24FF4F05100F0CFB9000039
:100FD0002DE9F34F8BB04FF0000801F10C000C46E7
:100FE0004FF0010B46460DF1080A0190626901219C
:100FF00001989047051E2DD0252D2CD0216A8847B9
:10100000C0B16269012101989047216A8847002890
:10101000F7D1411E62690198904700E0761CA169F2
:101020000B988847216A88470028F7D1E1690B9817
:101030008847DBE7A1690B9888470746A84201D19A
:10104000761CD3E7E1690B9888477F1C02D1B8F181
:10105000000F6FD046E1002762693D46394601988E
:1010600090472A2804D162690121019890470125FF
:10107000DFF884926269012101989047A0F1300164
:101080000A290AD24F45E5DC07EB870100EB41074F
:10109000303FDFD445F01005ECE7E90601D46FF0EE
:1010A00000476C280AD04C2814D0682815D06A282C
:1010B0000DD074281CD07A281AD01DE06269012155
:1010C000019890476C2802D045F0040514E045F0E3
:1010D00002050DE045F020050AE062690121019852
:1010E0009047682802D045F0080505E045F4006502
:1010F0006269012101989047C4E9015765283DD0F4
:1011000019DC58287AD00CDC452837D004DC252897
:1011100026D0412831D131E046282FD047282CD184
:101120002CE05B2877D0612828D063287CD0642805
:1011300023D15AE0D0E06F2848D008DC66281DD0C3
:1011400067281BD0692821D06E2816D127E0702887
:1011500045D0732868D0752847D078280DD14DE048
:10116000A1690B988847054625283FF469AFE169D6
:101170000B9888476D1C3FF46AAFB3E023466A467C
:101180006FF001000B99FFF74DFA9EE045F040002B
:101190006060A80723464FF0000236D43EE0E8071F
:1011A0007FF447AF2068011D21600068290501D543
:1011B00006701BE7290701D5068017E7A90703D5A5
:1011C000F117C0E9006111E706600FE745F0400044
:1011D0006060A80723464FF0080216D41EE040F6D0
:1011E0000E0125EA0100606016E045F040006060F5
:1011F000A80723464FF00A0207D40FE045F040004D
:101200006060A80708D5234610226FF001000B99F3
:10121000AFF3008059E007E0234610226FF0010091
:101220000B99FFF755F850E04FF000094F464B4639
:10123000632802D05B2806D040E0E80601D40120F4
:10124000A06001273AE062690121019890475E2879
:1012500005D14FF00109626949460198904721691B
:1012600039B900210A46534643F82120491C082970
:10127000FADBB0B3216969B9C11700EBD162531130
:101280000AEB830122F01F02821A01200B689040B2
:1012900003430B6062690121019890475D28E8D102
:1012A000B9F1000F09D00020514651F82020D24357
:1012B00041F82020401C0828F7DB02AB22460097AB
:1012C0006FF001000B99FFF7A9F800280CDA401C19
:1012D00008D1BBF1000F05D04FF0FF300DB0BDE8D5
:1012E000F08FFFE74046F9E7E90701D108F101086F
:1012F00006444FF0000B79E6CCCCCC0C0029A8BFFB
:101300007047401C490008BF20F00100704710B42E
:10131000B0FA80FC00FA0CF050EA010404BF10BCE3
:10132000704749B1CCF1200421FA04F411FA0CF110
:1013300018BF012121430843A3EB0C01CB1D4FEA49
:1013400000614FEA102042BF002010BC704700EB44
:10135000C35010440029A4BF10BC7047401C490072
:1013600008BF20F0010010BC704700007F2801D9A1
:10137000002208E0064A02EB5002C007127800D1B2
:10138000120902F00F02012090400840704700004F
:10139000FC7D00082DE9F04F8FB004467FE09749AF
:1013A000974803F0E5FC95480088002877DD95A173
:1013B0009348FEF73FFF814699F81200412837D144
:1013C0005C2192A0FEF758FF28B15C218FA0FEF7A8
:1013D00053FF401C00E08DA006462F21FEF74CFF76
:1013E000002811D05C2189A0FEF746FF28B15C21BE
:1013F00086A0FEF741FF401C00E084A006462F2196
:10140000FEF73AFF401C0BE05C2180A0FEF734FFA2
:1014100028B15C217DA0FEF72FFF401C00E07BA0DF
:101420000546774B2222294683A004F099FE37E037
:101430005C2176A0FEF720FF28B15C2173A0FEF7A7
:101440001BFF401C00E071A006462F21FEF714FF91
:10145000002811D05C216DA0FEF70EFF28B15C21A1
:101460006AA0FEF709FF401C00E068A006462F2195
:10147000FEF702FF401C0BE05C2164A0FEF7FCFEBF
:1014800028B15C2161A0FEF7F7FE401C00E05FA0E0
:1014900005465B4B272229466FA004F061FE7EE7DC
:1014A00000BF0BAB04F1880004F1800104F1780265
:1014B000CDE90303CDE90121183804F168030DAA31
:1014C0006DA100904846FEF7E7FE9DF839009DF8B3
:1014D00038109DF837209DF83630CDE90632CDE939
:1014E00008109DF835009DF834109DF82D209DF8CA
:1014F0002C30CDE90232CDE904109DF82F009DF883
:101500002E10CDE900109DF831309DF8302065A1F6
:1015100004F1900004F034FE04F19001084600F05C
:10152000F5FA0022674BD4E91A713846FFF7AFFA93
:101530000546FFF758FBC0B2642148430390FFF70C
:1015400015FB8246D4E91A532A46FFF72BFA0022EC
:101550005D4BCDE90401FFF79AFACDE908010022BD
:10156000584BD4E91A512846FFF791FA0746FFF77E
:101570003AFB00F0FF0A5046FFF709FBCDE90601F0
:10158000DDE90823FFF76AF9C4E91A0100224D4B8F
:10159000D4E91E512846FFF77AFA0746FFF723FBE6
:1015A000C0B2642148430390FFF7E0FA8246D4E9D1
:1015B0001E532A46FFF7F6F90022434BCDE90401FA
:1015C000FFF765FACDE9080100223E4BD4E91E5130
:1015D0002846FFF75CFA0746FFF705FB00F0FF0A15
:1015E0005046FFF7D4FACDE90601DDE90823FFF7FD
:1015F00035F9C4E91E010FB0BDE8F08F10000020DE
:101600008803002024474E524D4300002E2E5C419B
:1016100070705C636F6D6D756E69636174696F6E18
:101620005C4170705F436F6D6D756E696361746965
:101630006F6E2E63000000005B253230733A253454
:10164000645D202D2D20D3D0D0A7CAFDBEDD3A0D7C
:101650000A25730D0A0000005B253230733A2534E9
:10166000645D202D2D20CEDED0A7CAFDBEDD3A0D53
:101670000A25730D0A00000024474E524D432C25C5
:101680003663252A3763256C662C25632C256C660A
:101690002C25632C256C662C252A6C662C2536633C
:1016A000000000003230256325632D256325632D5E
:1016B0002563256320256325633A256325633A2541
:1016C000632563000000594000004E402DE9F041C1
:1016D0000446204600F094F9204600F0AFF8054695
:1016E000012D39D15C2138A0FEF7C6FD28B15C215F
:1016F00035A0FEF7C1FD401C00E033A007462F21B6
:10170000FEF7BAFD002811D05C212FA0FEF7B4FD32
:1017100028B15C212CA0FEF7AFFD401C00E02AA000
:1017200007462F21FEF7A8FD401C0BE05C2126A0F8
:10173000FEF7A2FD28B15C2123A0FEF79DFD401C11
:1017400000E021A006469A2231462AA004F008FDB6
:10175000204600F087F835E05C211BA0FEF78CFDE9
:1017600028B15C2118A0FEF787FD401C00E016A000
:1017700007462F21FEF780FD002811D05C2112A022
:10178000FEF77AFD28B15C210FA0FEF775FD401C25
:1017900000E00DA007462F21FEF76EFD401C0BE078
:1017A0005C2109A0FEF768FD28B15C2106A0FEF7C8
:1017B00063FD401C00E004A00646A022314616A0AE
:1017C00004F0CEFCBDE8F0812E2E5C4170705C63AD
:1017D0006F6D6D756E69636174696F6E5C41707079
:1017E0005F436F6D6D756E69636174696F6E2E63B3
:1017F000000000005B253230733A2534645D202DF3
:101800002D20CDA8B9FD496F54B7A2CBCDCAA7B042
:10181000DC2E2E2E2E0D0A005B253230733A253435
:10182000645D202D2D20CDA8B9FD496F54B7A2CB02
:10183000CDB3C9B9A62E2E2E2E0D0A0010B5044622
:10184000B4F8A83104F1A8024BF2390101A003F069
:10185000C5FE10BD3131322E3132352E38392E3899
:1018600000000000F8B504465C2120A0FEF704FD4E
:1018700028B15C211DA0FEF7FFFC401C00E01BA06E
:1018800006462F21FEF7F8FC002811D05C2117A096
:10189000FEF7F2FC28B15C2114A0FEF7EDFC401C21
:1018A00000E012A006462F21FEF7E6FC401C0BE0EC
:1018B0005C210EA0FEF7E0FC28B15C210BA0FEF736
:1018C000DBFC401C00E009A0054604F1A8000090E4
:1018D000B4F8A831672229460FA004F041FCB4F8FF
:1018E000A81104F1A80003F0B7FBF8BD2E2E5C414F
:1018F00070705C636F6D6D756E69636174696F6E36
:101900005C4170705F436F6D6D756E696361746982
:101910006F6E2E63000000005B253230733A253471
:10192000645D202D2D206C656E203D2025642020D7
:1019300064617461203D2025730D0A0010B503F029
:1019400049FD03F0F5F903F01FFB10BD0EB503F0E0
:1019500011FC03F029F9002202A9124802F07AF8DA
:101960009DF808008DF800009DF809008DF8010031
:101970009DF80A001E30C0B28DF8020000226946B0
:10198000084802F069F90848006840F00800064974
:1019900008600846006840F00400086001F0DAFBC7
:1019A0000EBD0000440200200070004010B503F09E
:1019B00045FC03F05BF910BD10B5044603F0A8FA2E
:1019C000C4F8A40010BD10B503F09EFA10BD00BF0E
:1019D000FEE710B503F038FF10BD10B504462046F1
:1019E00000F042FE10BD10B5044603E04FF47A70DB
:1019F000FFF7F3FF201EA4F10104F7D110BD000092
:101A00002DE9F843044600F0F3FF054600F0EAFF35
:101A1000064600F0E1FF814633464A4629A12046AA
:101A2000009504F0ADFB05F069F98046224629A136
:101A3000404605F017F9D4E91A532A4626A1404634
:101A400005F0F2F804F1700224A1404605F00AF90D
:101A5000D4E91E532A4623A1404605F0E5F804F1D7
:101A6000800221A1404605F0FDF8D4E922532A4620
:101A70001FA1404605F0D8F804F190021EA140468F
:101A800005F0F0F8D4F8A400FFF781F805462A46DF
:101A90000B461CA1404605F0C7F8404605F092F9F8
:101AA00007463846FEF7D8FBA4F8A801B4F8A821E9
:101AB000394604F1A800FEF799FB404605F044F9C9
:101AC000BDE8F88325303858253038582530385847
:101AD00000000000756964006C6174006C617444FE
:101AE000697200006C6F6E006C6F6E44697200006A
:101AF00073706565640000006461746554696D65A8
:101B000000000000737465704E756D0070B590B084
:101B100006460D4605AB06A907A808AA01AC0BC4EA
:101B2000009209AB0AAA14A13046FEF7B5FB0A9849
:101B3000A0F26C700A900998401E0990079808302E
:101B4000079005A8FEF7FEFA049004A8FFF7FCF83A
:101B5000044694E80B00E268CDE90023CDE90210C9
:101B60002069431C606900F26C7208A1284604F0E9
:101B700007FB10B070BD000025642D25642D256481
:101B80002025643A25643A25640000002530346439
:101B90002D253032642D2530326420253032643AD0
:101BA000253032643A25303264000000704701B5B8
:101BB00001226946892000F0CAFB08BD38B50446F9
:101BC0001B48844206D9E1208DF80000E9208DF8F9
:101BD000010026E01748844206D9D7208DF800007E
:101BE000D8208DF801001CE01348844206D9C1209A
:101BF0008DF80000C5208DF8010012E00F488442E6
:101C000006D975208DF8000081208DF8010008E0CC
:101C10000B48844205D96B208DF800006F208DF8A9
:101C2000010002226946982000F091FB38BD0000B7
:101C300000E9A43580F8A9328044E52D000B6B1B28
:101C400040FC541910B500F055F818B100F052F8E6
:101C5000062801D100F04BFB00F042FB10BD38B567
:101C60000446200A8DF80000E0B28DF8010002223F
:101C70006946104600F06BFB38BD1020704708B570
:101C800002226946122000F006F99DF801009DF835
:101C9000001040EA012008BD38B504460322694619
:101CA000142000F0F8F89DF800004042C0F347010E
:101CB00021739DF80100802804DA9DF8010081104D
:101CC000617306E09DF80100A0F58070C0F3870104
:101CD00061739DF802004042C0F34701A1730248BE
:101CE0000168216138BD00001C00002000487047D9
:101CF000000420020148007870470000180000200E
:101D0000F8B505460C461646002000906946204668
:101D100000F00DF82078B04201DD0120F8BD2278F6
:101D200029469DF8000000F092F80020F6E738B54B
:101D300004460D4602226946132000F0ACF840F23A
:101D4000047000F0C9F80121B1EBE01F05D140F2A9
:101D5000027000F0C1F8207002E09DF800002070D1
:101D60009DF80100287038BD2DE9F04100F0E5F83C
:101D700000F0BDFA01201C49087000F04BFA1C214C
:101D800040F6111000F002FB1C2140F6121000F08A
:101D9000FDFA012000F020F9012000F0B4F9002143
:101DA000084600F00CF9012000F096F90F488479FC
:101DB000C579067A32462146284600F063F945F295
:101DC0004B7000F052F9FF2000F032F9084F38460E
:101DD00000F0A0F90721162000F060FA002000F0C2
:101DE000D3F9BDE8F0810000180000201C7D000838
:101DF00088F6D01938B5FFF742FF0446002000905E
:101E0000F4B12046FFF72BFF04F00200022811D1A5
:101E10000C48FFF741FFFF2269460B48FFF770FFB0
:101E20009DF800200849204600F0EEFA002000F05E
:101E3000ABF905E09DF800200349204600F0E4FAE4
:101E400038BD0000A0110020B411002070472DE91A
:101E5000F04107460D461646FFF7F4FE002000F05D
:101E60001FFB1E2000F02EFB384600F02BFB00204D
:101E700000F028FB002405E0002000F023FB28559B
:101E8000601C84B2B442F7DB012000F009FB00F0D3
:101E900027FABDE8F0812DE9F04107460D461646C8
:101EA000FFF7D0FE002000F0FBFA384600F00AFBF6
:101EB000002000F007FB002405E0002000F002FBFA
:101EC0002855601C84B2B442F7DB012000F0E8FA28
:101ED00000F006FABDE8F08138B5044601226946F3
:101EE000204600F003F89DF8000038BD2DE9F041D0
:101EF00004460E461746FFF7A5FE002000F0D0FA74
:101F00001D2000F0DFFA200A00F0DCFAE0B200F059
:101F1000D9FA002000F0D6FA002505E0002000F0F4
:101F2000D1FA7055681C85B2BD42F7DB012000F084
:101F3000B7FA00F0D5F9BDE8F08110B50A2000F03D
:101F40005DFA002000F086FA142000F057FA012014
:101F500000F080FA142000F051FA10BD10B50020F6
:101F600000F0EAFA012000F087FA10BD10B5002059
:101F700000F082FA012000F0DFFA10BD2DE9F041F7
:101F800007460C461546204600F052F821463846D2
:101F900000F0B0F8284600F051F9002600BF0120FB
:101FA00000F02CFAFFF76BFE0646002EF7D0304605
:101FB000FFF755FE304600F097FABDE8F08138B5DE
:101FC00005460C468DF800508DF801400222694606
:101FD0008F2000F0BCF938BD01B5012269469D2073
:101FE00000F0B5F908BD2DE9FC4107460C46154641
:101FF0001E46380A8DF80000F8B28DF80100200A5C
:102000008DF80200E0B28DF80300280A8DF8040074
:10201000E8B28DF80500300A8DF80600F0B28DF8B0
:10202000070008226946104600F091F9BDE8FC81DE
:102030003EB5054600200090019002903C24200A05
:102040008DF800008DF8014000208DF802008DF819
:10205000035001208DF8040000208DF805000622B1
:1020600069468C2000F073F93EBD10B50446210A84
:102070004FF4E86000F08AF9E1B240F2417000F0FC
:1020800085F910BD7CB506460C461546002000902B
:1020900001908DF800608DF801408DF8025001200C
:1020A0008DF80300042269468B2000F050F97CBDB6
:1020B000F8B504460D4616461F468DF800408DF8CB
:1020C00001508DF802608DF8037004226946952056
:1020D00000F03DF9F8BD000001B59DF8000004498D
:1020E0000870012269468A2000F031F908BD00001D
:1020F0001900002070B504460D462A4621460020EE
:1021000000F005F970BD01B501226946962000F086
:102110001EF908BD2DE9FC4781460024FF200090F0
:102120000098FFF744FD4846FFF748FD012000F006
:1021300071F81C2140F6111000F028F91C2140F61E
:10214000121000F023F94846FEF721FD0746002251
:102150000C4BFEF79CFC0546FEF745FD0446200EA1
:102160008DF80400200C8DF80500200A8DF806007B
:10217000E0B28DF80700042201A9862000F0E7F8FC
:10218000BDE8FC878084EE3F38B50446052017493A
:102190000870012000F03EF81C2140F6111000F0FC
:1021A000F5F81C2140F6121000F0F0F800231A4652
:1021B00040F202210846FFF716FFFF20FFF738FF25
:1021C0004FF6FF70FFF74BFDFFF7C8FE200C8DF8B0
:1021D0000000200A8DF80100E0B28DF80200032211
:1021E0006946822000F0B3F838BD000018000020D6
:1021F00001B5002000F0A0F9002000F03DF9012217
:102200006946842000F0A3F800200149087008BD49
:102210001800002001B501226946802000F097F8DF
:102220009DF8000018B901200349087002E002205F
:102230000149087008BD00001800002038B50446A8
:10224000042015490870FFF791FE0120FFF7E2FF17
:102250001C2140F6111000F099F81C2140F61210D4
:1022600000F094F800231A4640F201210846FFF7D7
:10227000BAFE4FF6FF70FFF7F2FC200C8DF800005D
:10228000200A8DF80100E0B28DF8020003226946B1
:10229000832000F05CF838BD1800002038B50446F3
:1022A0000D460123002207210420FFF701FF162C11
:1022B00001DD162404E014F1030F01DA6FF00204CB
:1022C000382140F6E70000F061F8E0B28DF8000038
:1022D0008DF80150022269468E2000F038F838BD92
:1022E00010B500BF00F07EF80028FBD110BD10B57E
:1022F000002000F0D5F8C02000F0E4F8002000F045
:10230000E1F8012000F0CCF8FFF7EAFF10BD2DE95D
:10231000F04107460D461646FFF794FC002000F0FA
:10232000BFF80E2000F0CEF8384600F0CBF80024BD
:1023300004E0285D00F0C6F8601C84B2B442F8DB0B
:10234000012000F0ADF8FFF7CBFFBDE8F0812DE9EB
:10235000F04105460E461746FFF774FC002000F0DA
:102360009FF8284600F0AEF8002404E0305D00F04D
:10237000A9F8601C84B2BC42F8DB012000F090F8A0
:10238000842D01D0FFF7ACFFBDE8F08113B5044602
:10239000012201A9204600F001F81CBD2DE9F04101
:1023A00004460E461746FFF74DFC002000F078F873
:1023B0000D2000F087F8200A00F084F8E0B200F069
:1023C00081F8002504E0705D00F07CF8681C85B29F
:1023D000BD42F8DB012000F063F8FFF781FFBDE8A4
:1023E000F081000010B500240221034800F0E0FA5B
:1023F0000446204610BD0000000C014010B5044604
:10240000204600F031F910BD70B504460D46164661
:1024100004F0020020B13146284602F0BFFD0BE077
:1024200004F4007018B105A003F09AFE04E0084817
:1024300003F096FE00BFFEE770BD0000BDD3CAD515
:10244000D2ECB3A3B3ACCAB12E2E2E0D0A000000FD
:10245000887E000810B50446012C05D101221146E2
:10246000044800F0ADFA04E000220121014800F028
:10247000A7FA10BD000C014010B50446012C05D18F
:1024800001220103054800F09BFA05E000224FF409
:102490008051024800F094FA10BD0000000C014089
:1024A00010B50446012C05D101221021044800F08A
:1024B00087FA04E000221021014800F081FA10BDE3
:1024C0000008014001B582B0002001904FF4FA608D
:1024D000012301AA02A90090024801F0E9FC9DF83D
:1024E00004000EBD5802002010B504460B48C16818
:1024F0000020884704F0010010B102F0B9FD0BE0A4
:1025000004F4007018B106A003F02AFE04E00948A4
:1025100003F026FE00BFFEE710BD0000FC7C0008B3
:10252000B7A2CBCDD2ECB3A3B3ACCAB12E2E2E0D35
:102530000A0000003C7E000810B50446012C05D1BD
:1025400001220421044800F03BFA04E000220421A7
:10255000014800F035FA10BD000C014072B600BF12
:10256000FEE70146002291F82100022808D004204D
:10257000886300BF002081F8200000BF0120704761
:102580000868006820F00E000B6818600868006892
:1025900020F001000B68186091F84030012098404D
:1025A000CB6B5860012081F8210000BF002081F82A
:1025B000200000BF1046E2E770B50446002594F8FD
:1025C0002100022803D00420A063012548E02068F0
:1025D000006820F00E00216808602068006820F084
:1025E0000100216808601F492068884201D101204C
:1025F00026E01C4914312068884201D110201FE0D8
:10260000184928312068884201D1801518E0154901
:102610003C312068884201D1801411E011495031C9
:102620002068884202D14FF4803009E00D496431BE
:102630002068884202D14FF4801001E04FF0807092
:10264000084908394860012084F8210000BF0020B3
:1026500084F8200000BF606B10B12046616B884792
:10266000284670BD0800024070B5044600F0AEF97F
:1026700006462546681C10B104480078054400BF92
:1026800000F0A4F9801BA842FAD370BD0800002016
:102690002DE9F8470346002294466EE14FF0010809
:1026A00008FA02F4D1F8008008EA0400A0427DD1C3
:1026B000DFF8DCA2D1F80480A8EB0A09D0453AD0B3
:1026C00014DCB8F1030F50D009DCB8F1000F31D0A1
:1026D000B8F1010F1CD0B8F1020F49D120E0B8F1D8
:1026E000110F18D0B8F1120F42D11EE0B9F5881FB2
:1026F00025D006DCB9F5803F20D0B9F5801F37D151
:102700001AE0B9F5001F18D0B9F5041F30D117E051
:10271000D1F80CC02DE0D1F80C8008F1040C28E0B1
:10272000D1F80C8008F1080C23E0D1F80C8008F1F6
:102730000C0C1EE000BF00BF00BF00BF00BF00BF09
:10274000D1F80880B8F1000F02D14FF0040C0BE073
:10275000D1F80880B8F1010F03D14FF0080C1C61CB
:1027600002E04FF0080C5C6103E04FF0000C00E069
:1027700000BF00BFFF2801D8984601E003F104081C
:102780004646FF2802D84FEA820803E0A2F1080873
:102790004FEA88084746D6F800804FF00F0909FA3B
:1027A00007F928EA09080CFA07F900E088E048EA86
:1027B0000908C6F80080D1F8048008F08058B8F104
:1027C000805F7DD100BFDFF8CC81D8F8188048F059
:1027D0000108DFF8C091C9F81880C846D8F81880F9
:1027E00008F00108CDF8008000BF00BF4FEAB938FB
:1027F0004FEA920958F829504FEA82784FEA18793F
:102800004FF00F0808FA09F825EA0805DFF8888173
:10281000434502D14FF0000816E0DFF880814345C0
:1028200002D14FF001080FE0DFF87481434502D177
:102830004FF0020808E0DFF86C81434502D14FF009
:10284000030801E04FF004084FEA82794FEA197952
:1028500008FA09F848EA0505DFF84C814FEA9209C1
:1028600048F82950D1F8048008F48018B8F5801F82
:102870000AD1DFF83881D8F8008048EA0008DFF88C
:102880002C91C9F8008009E0DFF82081D8F8008099
:1028900028EA0008DFF81491C9F80080D1F8048014
:1028A00008F40018B8F5001F10D1DFF8008108F116
:1028B0000408D8F8008048EA0008DFF8F09000E04B
:1028C0005AE009F10409C9F800800DE0DFF8DC8066
:1028D00008F10408D8F8008028EA0008DFF8CC9056
:1028E00009F10409C9F80080D1F8048008F400381F
:1028F000B8F5003F0ED1DFF8B480A8F10408D8F88D
:10290000008048EA0008DFF8A490A9F10409C9F89A
:1029100000800DE0DFF89480A8F10408D8F800806A
:1029200028EA0008DFF88490A9F10409C9F80080BA
:10293000D1F8048008F48038B8F5803F0ED1DFF874
:102940006C80A8F10808D8F8008048EA0008DFF891
:102950005C90A9F10809C9F800800DE0DFF84C800F
:10296000A8F10808D8F8008028EA0008DFF83C90B1
:10297000A9F10809C9F80080521CD1F8008028FA92
:1029800002F8B8F1000F7FF489AEBDE8F8870000C7
:10299000000011100010024000080140000C01402E
:1029A00000100140001401400800014008040140EB
:1029B000024693680B400BB1012000E000207047F5
:1029C0000AB1016101E00B0403617047014800682E
:1029D00070470000000000200148006870470000B8
:1029E000E8F7FF1F0148006870470000ECF7FF1F81
:1029F0000148006870470000F0F7FF1F70B50446FB
:102A00000CB9012070BD94F83D0028B9002084F86D
:102A10003C00204600F08CFA242084F83D00206819
:102A2000006820F00100216808602068006840F418
:102A30000040216808602068006820F40040216898
:102A4000086000F07DFD05465C496068884206D854
:102A50005B48854201D2012007E0002005E059488B
:102A6000854201D2012000E00020012800D1C9E701
:102A70005548B5FBF0F62068406820F03F00304331
:102A8000216848604D496068884201D8701C07E0A1
:102A90004FF4967070434FF47A71B0FBF1F0401C24
:102AA0002168096A21F03F0108432168086243490F
:102AB0006068884214D8681E61684900B0FBF1F074
:102AC000401CC0F30B00042801D204203DE0681E26
:102AD00061684900B0FBF1F0401CC0F30B0034E02A
:102AE000A06838B9681E616801EB4101B0FBF1F0E4
:102AF000401C0AE0681E616801EBC10202EB011193
:102B0000B0FBF1F0401C40F48040C0F30B0008B96A
:102B100001201AE0A06848B9681E616801EB410114
:102B2000B0FBF1F0401CC0F30B000CE0681E6168C4
:102B300001EBC10202EB0111B0FBF1F0401CC0F34C
:102B40000B0040F4804040F400402168C9694CF615
:102B5000FF72914308432168C861D4E90701084323
:102B60002168096821F0C001084321680860D4E9A0
:102B7000031008432168896848F2FF3291430843F3
:102B800021688860D4E9050108432168C96821F0FB
:102B9000FF0108432168C8602068006840F0010018
:102BA0002168086000202064202084F83D00002077
:102BB000206384F83E0000BF24E70000A0860100E7
:102BC00080841E0000093D0040420F002DE9FE4FA9
:102BD00004460F4690469946DDE90CAB0E9E002058
:102BE0000290FFF7F3FE054694F83D00202872D1CD
:102BF00019230122CA492046009501F081FE10B137
:102C00000220BDE8FE8F00BF94F83C00012801D1EE
:102C10000220F6E7012084F83C0000BF206800682D
:102C200000F0010028B92068006840F00100216828
:102C300008602068006820F4006021680860222095
:102C400084F83D00402084F83E0000202064C4F851
:102C500024A0A4F82AB0608D2085B248E0624B46DB
:102C6000424639462046CDE9006501F099FD08B19C
:102C70000120C6E7208D88B900BF002001902068A0
:102C80004069019020688069019000BF00BF206802
:102C9000006840F40070216808604BE0208D012836
:102CA0001AD12068006820F480602168086072B63C
:102CB00000BF002001902068406901902068806971
:102CC000019000BF00BF2068006840F400702168D8
:102CD000086062B62EE020E1208D022819D120681C
:102CE000006840F400602168086072B600BF0020F0
:102CF000019020684069019020688069019000BFC0
:102D000000BF2068006820F480602168086062B617
:102D100010E02068006840F480602168086000BF0F
:102D2000002001902068406901902068806901902E
:102D300000BF00BFE2E0208D03287DD8208D012850
:102D400015D12A463146204601F0B6FE08B10120D1
:102D500057E720680069616A0870606A401C606219
:102D6000208D401E2085608D401E6085C6E0208D30
:102D700002282CD1334600226B492046009501F0F1
:102D8000BFFD08B101203CE772B62068006840F43E
:102D900000702168086020680069616A0870606AD4
:102DA000401C6062208D401E2085608D401E608525
:102DB00062B620680069616A0870606A401C6062DF
:102DC000208D401E2085608D401E608596E0334634
:102DD000002255492046009501F092FD08B10120DE
:102DE0000FE72068006820F480602168086072B6F0
:102DF00020680069616A0870606A401C6062208D0A
:102E0000401E2085608D401E60854848006819215D
:102E1000B0FBF1F04FF47A71B0FBF1F0C0EBC00001
:102E200000EB8000029000BF0298401E02900298C2
:102E3000A8B90020206300E039E0202084F83D009C
:102E4000002084F83E00206C40F02000206462B630
:102E500000BF002084F83C0000BF0120D1E62068BC
:102E60004069C0F380000028DED02068006840F48C
:102E700000702168086020680069616A0870606AF3
:102E8000401C6062208D401E2085608D401E608544
:102E900062B620680069616A0870606A401C6062FE
:102EA000208D401E2085608D401E608526E02A46CC
:102EB0003146204601F000FE08B10120A1E620685D
:102EC0000069616A0870606A401C6062208D401E63
:102ED0002085608D401E608520684069C0F38000B9
:102EE00060B120680069616A0870606A401C6062B5
:102EF000208D401E2085608D401E6085208D00281D
:102F00007FF419AF202084F83D00002084F83E00B3
:102F100000BF84F83C0000BF73E6022071E60000A9
:102F2000020010000000FFFF040001000C00002060
:102F300010B586B0044600200290039004900590DE
:102F400015492068884225D100BF1448806940F0A7
:102F50000800124988610846806900F00800019065
:102F600000BF00BFC02002901220039003200590F4
:102F700002A90B48FFF78CFB00BF0848C06940F46A
:102F800000100649C8610846C06900F400100190AD
:102F900000BF00BF06B010BD00540040001002404A
:102FA000000C0140034800680349097808440149BE
:102FB00008607047000000200800002010B5084895
:102FC000006840F0100006490860032000F0A8F8EF
:102FD0000F2000F007F800F02BF8002010BD0000D3
:102FE0000020024070B504460E4800784FF47A7114
:102FF000B1FBF0F00C490968B1FBF0F5284601F08F
:1030000077F808B1012070BD102C07D200222146AC
:10301000501E00F047F80548046001E00120F2E787
:103020000020F0E7080000200C0000200400002031
:1030300008B500BF1148806940F001000F49886160
:103040000846806900F00100009000BF00BF00BF8B
:103050000846C06940F08050C8610846C06900F069
:103060008050009000BF00BF00BF0549486820F0B5
:10307000E06040F00070486000BF08BD00100240F2
:103080000000014001460846002809DB00F01F034C
:1030900001229A4043099B0003F1E023C3F8002179
:1030A00000BF70472DE9F05F80460D4616460027A9
:1030B00003F07AF8074639462A46334601F00700FE
:1030C000C0F1070ABAF1040F02D94FF0040A01E077
:1030D000C0F1070AD14600F1040ABAF1070F02D283
:1030E0004FF0000A01E0A0F1030AD4464FF0010AB4
:1030F0000AFA09FAAAF1010A0AEA020A0AFA0CFA19
:103100004FF0010B0BFA0CFBABF1010B0BEA030BBD
:103110004AEA0B042146404603F04EF8BDE8F09F12
:1031200000BF00F00702064B19684FF6FF03194075
:10313000044B0B4343EA0221014B196000BF704767
:103140000CED00E00000FA0501200149086270471B
:1031500000000E420748006840F002000549086080
:103160000548006840F004000349086000BF00BF44
:1031700030BF70470070004010ED00E02DE9F047CF
:1031800006464FF00008002500270024A146012E26
:1031900031D0022E56D0102E5FD1324844680068DC
:1031A00000F0807008B33048C4F38341475C04F4F6
:1031B000803078B12B484068C0F340402B4911F86B
:1031C000008004F4803040B12948B0FBF8F000FBE7
:1031D00007F502E0274807FB00F52248406800F4A5
:1031E0008000B0F5800F01D1A94603E068000321FB
:1031F000B0FBF1F932E01B48046A04F44070B0F50A
:10320000807F05D104F0020010B14FF4004918E0AE
:1032100004F44070B0F5007F07D11248406A00F016
:10322000020010B149F640490BE004F44070B0F5DB
:10323000407F06D10B48006800F4003008B14FF21F
:1032400024490BE000F08CF906494968C1F381314B
:10325000491C4900B0FBF1F900E000BF00BF48463F
:10326000BDE8F08700100240D07C0008E07C000838
:1032700000127A0000093D00F8B50446002600253A
:10328000207800F0010000286BD000274348C06977
:1032900000F0805070B900BF4048C06940F08050D5
:1032A0003E49C8610846C06900F08050009000BFE8
:1032B00000BF01273A48006800F48070B0B9384870
:1032C000006840F4807036490860FFF77FFB0646CF
:1032D00006E0FFF77BFB801B642801D90320F8BDC3
:1032E0002F48006800F480700028F2D02B48006A54
:1032F00000F440752DB3A08800F44070A84220D09F
:103300002648006A20F44075012026490860002004
:1033100008602248056205F0010090B1FFF756FBF6
:10332000064608E0FFF752FB801B41F288318842D5
:1033300001D90320D3E71948006A00F002000028F1
:10334000F0D01648006A20F44070616808431349C1
:103350000862012F04D10846C06920F08050C8617E
:1033600000BF207800F00200022807D10B48406817
:1033700020F44040A168084308494860207800F0E4
:103380001000102807D10548406820F48000E1684B
:103390000843024948600020A1E7000000100240F5
:1033A000007000404004424270B504460D460CB91E
:1033B000012070BD5A48006800F00700A8420ED2F4
:1033C0005748006820F00700284355490860084620
:1033D000006800F00700A84201D00120E9E720784A
:1033E00000F0020002281DD1207800F0040004281B
:1033F00005D14C48406840F4E0604A494860207874
:1034000000F00800082805D14648406840F46050A4
:10341000444948604348406820F0F000A1680843F0
:1034200040494860207800F0010078B360680128C6
:1034300006D13C48006800F4003090B90120B8E79C
:103440006068022806D13748006800F0007040B973
:103450000120AEE73348006800F0020008B90120FF
:10346000A7E73048406820F00300616808432D4911
:103470004860FFF7ABFA064609E0FFF7A7FA801BA2
:1034800041F28831884202D9032092E707E02548BB
:10349000406800F00C006168B0EB810FEDD120486E
:1034A000006800F00700A8420ED91D48006820F00F
:1034B000070028431A4908600846006800F0070022
:1034C000A84201D0012074E7207800F0040004280D
:1034D00007D11448406820F4E060E16808431149CE
:1034E0004860207800F00800082808D10D4840689E
:1034F00020F46050216940EAC1000A49486000F0A8
:103500003FF808494968C1F30311074A515CC840B4
:103510000649086006480068FFF764FD002048E798
:103520000020024000100240E27C00080C00002055
:103530000400002001480068704700000C000020D3
:1035400000B5FFF7F7FF04494968C1F30221034AB8
:10355000515CC84000BD000000100240F27C000831
:1035600000B5FFF7E7FF04494968C1F3C221034AE8
:10357000515CC84000BD000000100240F27C000811
:1035800070B500210022002400230020134D69683B
:1035900001F00C05F5B1042D02D0082D19D101E080
:1035A0000F4819E00F4DC1F38346AB5D01F4803540
:1035B00055B10A4D6D68C5F340450B4E725D084D1F
:1035C0005D43B5FBF2F402E0084D03FB05F4204631
:1035D00002E000BF024800BF00BF70BD0010024003
:1035E00000127A00BE7C0008CE7C000800093D0075
:1035F000F8B504460CB90120F8BD207800F00100B0
:10360000002878D0F848406800F00C0004280CD05E
:10361000F548406800F00C00082811D1F2484068D5
:1036200000F48030B0F5803F0AD1EF48006800F424
:10363000003000285FD0606800285CD10120DBE703
:1036400000BF6068B0F5803F06D1E748006840F4ED
:103650008030E549086028E0606858B9E2480068B1
:1036600020F48030E04908600846006820F480209B
:1036700008601AE06068B0F5A02F0BD1DA48006846
:1036800040F48020D84908600846006840F4803043
:1036900008600AE0D448006820F48030D24908600D
:1036A0000846006820F48020086000BF606888B188
:1036B000FFF78CF9054606E0FFF788F9401B642800
:1036C00001D9032098E7C848006800F400300028BA
:1036D000F2D010E0FFF77AF9054606E0FFF776F939
:1036E000401B642801D9032086E7BF48006800F426
:1036F00000300028F2D1207800F00200022857D1D3
:10370000B948406800F00C0050B1B748406800F07C
:103710000C00082818D1B448406800F4803098B9EB
:10372000B148006800F0020020B12069012801D0F2
:10373000012061E7AC48006820F0F800616940EAC8
:10374000C100A949086033E02069E8B10120A74918
:103750000860FFF73BF9054606E0FFF737F9401B25
:10376000022801D9032047E79F48006800F00200C3
:103770000028F2D09C48006820F0F800616940EA17
:10378000C1009949086013E0002098490860FFF7DC
:103790001DF9054606E0FFF719F9401B022801D97B
:1037A000032029E79048006800F002000028F2D1C9
:1037B000207800F0080008282DD1A069B8B10120B8
:1037C0008B490860FFF702F9054606E0FFF7FEF8AF
:1037D000401B022801D903200EE78348406A00F00D
:1037E00002000028F2D0012002F088F813E0002047
:1037F0007F490860FFF7EAF8054606E0FFF7E6F8BC
:10380000401B022801D90320F6E67748406A00F001
:1038100002000028F2D1207800F00400042873D1BF
:1038200000277148C06900F0805070B900BF6E4831
:10383000C06940F080506C49C8610846C06900F01A
:103840008050009000BF00BF01276A48006800F464
:103850008070B0B96748006840F4807065490860BE
:10386000FFF7B4F8054606E0FFF7B0F8401B642800
:1038700001D90320C0E65F48006800F4807000288A
:10388000F2D000BFE068012806D15748006A40F036
:1038900001005549086227E0E06858B95248006ABB
:1038A00020F00100504908620846006A20F0040038
:1038B000086219E0E06805280BD14B48006A40F027
:1038C0000400494908620846006A40F001000862A5
:1038D0000AE04548006A20F00100434908620846B2
:1038E000006A20F00400086200BFE068A0B1FFF7A2
:1038F0006DF8054609E0FFF769F8401B41F2883191
:10390000884202D9032077E622E03748006A00F0B7
:1039100002000028EFD012E0FFF758F8054608E053
:10392000FFF754F8401B41F28831884201D9032047
:1039300062E62D48006A00F002000028F0D1012F55
:1039400005D12948C06920F080502749C86100BFCF
:10395000E069C8B32448406800F00C00082860D033
:10396000E069022848D1002020490866FFF72EF8B8
:10397000054606E0FFF72AF8401B022801D903207C
:103980003AE61948006800F000700028F2D1206A79
:10399000B0F5803F07D11448406820F40030A1689A
:1039A000084311494860D4E9080108430E494968B1
:1039B00021F4741108430C49486001200B49086642
:1039C000FFF704F8054607E03DE0FEF7FFFF401B68
:1039D000022801D903200FE60348006800F00070B8
:1039E0000028F2D02FE00000001002400000424208
:1039F0008004424200700040002014490866FEF72F
:103A0000E5FF054606E0FEF7E1FF401B022801D96D
:103A10000320F1E50E48006800F000700028F2D1A4
:103A200011E0E069012800D1E6E50948466806F49E
:103A30008031206A814204D106F47011606A8142AB
:103A400001D00120D8E50020D6E500000000424268
:103A5000001002402DE9F04780460C4691460025B3
:103A60000026AA460027B8F1000F00D014B90120A3
:103A7000BDE8F087D8F800004068C0F3800008B1C6
:103A80000120F5E7404602F01FF805464FF461605B
:103A9000B5FBF0F7B5FBF0F100FB11503C21B0FB9A
:103AA000F1F060704FF46160B5FBF0F100FB115074
:103AB0003C21B0FBF1F201FB1200A070182F39D3AA
:103AC0001820B7FBF0FAB7FBF0F100FB1170207083
:103AD000404601F0EDFF0646701C18B1AE4201D918
:103AE000761B01E04FF0FF360AEB4A00C000C0EB46
:103AF0004011C1EB0020A5EB00152946404602F01D
:103B000056F808B10120B3E7701C38B12E44314695
:103B1000404602F035F840B10120A9E73146404661
:103B200002F02EF808B10120A2E75146404601F00C
:103B300011FF00E02770B9F1000F0BD0207801F0E1
:103B4000FCFE2070607801F0F8FE6070A07801F053
:103B5000F4FEA07000208BE770B5044600250CB978
:103B6000012070BD607C20B900202074204600F048
:103B700053F802206074204600F0D8F818B10420F1
:103B800060740120EDE7204601F03FFF18B10420EA
:103B900060740120E5E72068406820F00700216894
:103BA0004860A06828B11B48006820F0010019494E
:103BB00008601848001F006820F46070A16808437E
:103BC0001449091F08606068401C08B1656809E075
:103BD0000120FFF7D3FA05461DB9042060740120C7
:103BE000BFE76D1EC5F3034021688860A8B2216855
:103BF000C860204601F026FF18B10420607401203F
:103C0000AFE70021E17301216173A17301206074AA
:103C10000020A6E7306C004038B504460B49206808
:103C2000884212D1FFF790FA00BF0948C06940F0FE
:103C300000600749C8610846C06900F00060009054
:103C400000BF00BF01200349086038BD00280040C4
:103C5000001002403C0442422DE9F84304460D4660
:103C6000174600260020009004B115B90120BDE8D8
:103C7000F88300BF207C012801D10220F7E7012052
:103C8000207400BF02206074002269462046FFF7BE
:103C9000E1FE08B10120EAE79DF800004FF4616100
:103CA00048439DF80110C1EB011100EB81009DF824
:103CB000021000EB01085FB928784FF461614843B6
:103CC0006978C1EB011100EB8100A978461812E078
:103CD000287801F027FE4FF4616100FB01F9687854
:103CE00001F020FEC0EB001009EB8009A87801F07C
:103CF00019FE09EB0006464501D20B480644314641
:103D0000204601F03DFF38B10420607400BF002060
:103D1000207400BF0120AAE70120607400BF0020CA
:103D2000207400BF00BFA2E78051010070B50446B7
:103D300000250CB9012070BD2068406820F0080003
:103D400021684860FEF742FE054607E0FEF73EFEAA
:103D5000401BB0F57A7F01D90320ECE7206840686A
:103D600000F008000028F1D00020E4E710B5044678
:103D70000CB9012010BD606A38B96068B0F5827F67
:103D800000D105E00021E16102E0002121616161D3
:103D90000021A16294F8510028B9002084F8500055
:103DA000204600F043F8022084F8510020680068A3
:103DB00020F0400021680860A08800F4827021890A
:103DC00001F404410843A18901F400610843217C06
:103DD00001F002010843217D01F001010843218B1C
:103DE00001F400710843217F01F0380108432021CC
:103DF000095D01F080010843218D01F40051084361
:103E0000216808600421A06901EA10402168486027
:103E10002068C06920F400602168C86100206065E6
:103E2000012084F851000020A4E7000010B586B0FE
:103E300004460020029003900490059019492068E0
:103E400088422DD100BF1848806940F4805016493F
:103E500088610846806900F48050019000BF00BF6F
:103E600000BF0846806940F0040088610846806908
:103E700000F00400019000BF00BFA02002900220CB
:103E800003900320059002A90848FEF701FC40209A
:103E9000029000200390049002A90448FEF7F8FB6A
:103EA00006B010BD00300140001002400008014083
:103EB0002DE9FF5F0446884691461D460E9E01206F
:103EC00002900020019000BF94F85000012803D117
:103ED000022004B0BDE8F09F012084F8500000BF2C
:103EE000FEF774FD074694F851B060680390AA4647
:103EF000BBF1010F0BD00398B0F5827F04D1A0680D
:103F000010B9BBF1040F02D002200190E9E0B8F132
:103F1000000F03D0B9F1000F00D015B901200190B6
:103F2000DFE094F85100042802D0052084F8510005
:103F300000206065C4F83890E587A587C4F8308014
:103F4000E586A586206460642068006800F0400073
:103F5000402805D02068006840F0400021680860D3
:103F6000E068B0F5006F4DD1606810B1BAF1010F93
:103F700009D1206B00882168C860206B801C2063F9
:103F8000E08E401EE08636E02068806800F0020087
:103F9000022810D1E08E70B1029801280BD1206B5D
:103FA00000882168C860206B801C2063E08E401E62
:103FB000E086002002902068806800F0010068B16F
:103FC000E08F58B12068C068A16B0880A06B801C8E
:103FD000A063E08F401EE08701200290FEF7F6FC10
:103FE000C01BB04207D3701C28B1032001900120F0
:103FF00084F8510075E0E08E0028C5D1E08F0028DC
:10400000C2D14DE0606810B1BAF1010F09D1206B47
:10401000007821680873206B401C2063E08E401EEE
:10402000E08637E02068806800F00200022810D1A6
:10403000E08E70B1029801280BD1206B00782168C6
:104040000873206B401C2063E08E401EE086002039
:1040500002902068806800F0010068B1E08F58B1DC
:104060002068C068A16B0870A06B401CA063E08F43
:10407000401EE08701200290FEF7A8FCC01BB04262
:1040800001D3701C00B92EB903200190012084F8DF
:10409000510026E0E08E0028C4D1E08F0028C1D175
:1040A0003A463146204601F099FD20B101200190A9
:1040B0002020606515E0A06850B900BF0020009086
:1040C0002068C068009020688068009000BF00BF32
:1040D000606D10B10120019002E0012084F85100D0
:1040E00000BF00BF002084F8500000BF0198F0E638
:1040F00070B504462546681EB0F1807F01D30120CB
:104100000FE0681E4FF0E02148610F214FF0FF30B3
:1041100002F052F800204FF0E0218861072008618A
:10412000002070BDF8B504460E46174694F84200CC
:1041300020282ED106B10FB90120F8BD012020633F
:10414000002060633A463146204601F05DFF054697
:10415000EDB9206B012819D100BF00200090206824
:104160000068009020684068009000BF00BF00BF5A
:1041700000BF21680C3151E8001F41F01000216898
:104180000C3141E80002002AF3D100E00125284665
:10419000D3E70220D1E7000070B504460D46084978
:1041A0002068884203D1284600F014FE06E0054945
:1041B0002068884202D1284601F070F970BD0000E5
:1041C0000044004000480040704700002DE9F84FCF
:1041D0000446206805682068C668206847694FF073
:1041E0000009CA4605F00F09B9F1000F0AD105F020
:1041F000200038B106F0200020B1204601F008FE72
:10420000BDE8F88FB9F1000F7BD007F0010018B9B5
:1042100006F49070002874D005F0010030B106F467
:10422000807018B1606C40F00100606405F004001B
:1042300030B107F0010018B1606C40F0020060641A
:1042400005F0020030B107F0010018B1606C40F0D9
:104250000400606405F0080048B106F0200010B9C1
:1042600007F0010018B1606C40F008006064606CF9
:10427000002845D005F0200028B106F0200010B13C
:10428000204601F0C5FD20684069C0F3801A606CCB
:1042900000F0080010B9BAF1000F2CD0204601F050
:1042A00071FD2068406900F0400000B300BF00BF0E
:1042B0002168143151E8001F21F0400021681431B9
:1042C00041E80002002AF3D100BFE06B50B177480B
:1042D000E16B4863E06BFEF76FF988B1E06B416B0F
:1042E00088470DE02046FFF76FFF09E009E0204610
:1042F000FFF76AFF04E02046FFF766FF00206064D6
:104300007EE7206B012877D105F01000002873D0DC
:1043100006F010000028FAD000BF002000902068AE
:104320000068009020684068009000BF00BF2068CF
:10433000406900F0400000285FD0E06B00684068F2
:104340001FFA80F8B8F1000F55D0A08D404552DD1E
:10435000A4F82E80E06B8069202843D000BF00BF06
:1043600021680C3151E8001F21F4807021680C3164
:1043700041E80002002AF3D100BF00BF00BF21685E
:10438000143151E8001F21F001002168143141E887
:104390000002002AF3D100BF00BF00BF2168143122
:1043A00051E8001F21F040002168143141E800026B
:1043B000002AF3D100BF202084F8420000202063AF
:1043C00000BF00BF21680C3151E8001F21F0100030
:1043D00021680C3141E80002002AF3D100BFE06BF4
:1043E000FEF7BFF802206063A08DE28D801A81B2D3
:1043F0002046FFF7D1FE03E742E0A08DE18D401A91
:104400001FFA80F8E08DD0B3B8F1000F37D000BFAD
:1044100000BF21680C3151E8001F21F49070216821
:104420000C3141E80002002AF3D100BF00BF00BFF9
:104430002168143151E8001F21F001002168143176
:1044400041E80002002AF3D100BF202084F8420096
:104450000020206300BF00BF21680C3151E8001F1D
:1044600021F0100021680C3141E80002002AF3D14C
:1044700000BF0220606341462046FFF78DFEBFE685
:1044800005F0800030B106F0800018B1204601F040
:10449000DBFDB5E605F0400030B106F0400018B194
:1044A000204601F0A5FCABE600BFA9E6715D00085F
:1044B00010B504460CB9012010BDA06900B100E0A0
:1044C00000BF94F8410028B9002084F8400020463D
:1044D00000F02AF8242084F841002068C06820F405
:1044E00000502168C860204601F010FD2068006976
:1044F00020F49040216808612068406920F02A007B
:10450000216848612068C06840F400502168C86094
:1045100000206064202084F8410084F842000020DC
:10452000606300BFC8E7000010B586B004460020F5
:1045300002900390049005905549206888422FD13D
:1045400000BF5448806940F4804052498861084661
:10455000806900F48040019000BF00BF00BF0846A2
:10456000806940F0040088610846806900F004001A
:10457000019000BF00BF4815029002200390032065
:10458000059002A94448FEF783F84FF4806002903A
:1045900000200390049002A93F48FEF779F875E0E7
:1045A0003E492068884236D100BF3A48C06940F48D
:1045B00000303849C8610846C06900F400300190F5
:1045C00000BF00BF00BF0846806940F0040088615A
:1045D0000846806900F00400019000BF00BF04207D
:1045E0000290022003900320059002A92A48FEF7BA
:1045F0004FF80820029000200390049002A926485A
:10460000FEF746F8002211462620FEF74BFD262035
:10461000FEF738FD3AE022492068884236D100BFD3
:104620001C48C06940F480201A49C8610846C06926
:1046300000F48020019000BF00BF00BF08468069E1
:1046400040F0080088610846806900F00800019089
:1046500000BF00BF081502900220039003200590C0
:1046600002A91048FEF714F84FF4006002900020F1
:104670000390049002A90B48FEF70AF800221146A5
:104680002720FEF70FFD2720FEF7FCFC06B010BD2B
:104690000038014000100240000801400044004082
:1046A00000480040000C014070472DE9F84F0446D7
:1046B0000E46174699464FF0000A94F8410020280C
:1046C0004AD106B117B90120BDE8F88F0020606417
:1046D000212084F84100FEF779F98246A784E78417
:1046E000A068B0F5805F04D1206910B90025B046FC
:1046F00002E035464FF000081BE0534600228021BF
:104700002046CDF8009001F0CFFC08B10320DBE794
:1047100045B9B8F80000C0F308002168486008F106
:10472000020803E02878216848606D1CE08C401E78
:10473000E084E08C0028E0D153460022402120464E
:10474000CDF8009001F0B0FC08B10320BCE72020B8
:1047500084F841000020B7E70220B5E7704700BFAA
:10476000FEE7014608684069C0F38020B0B16FF4ED
:1047700080600A68506100200863202081F83D00B5
:10478000002081F83E00086C40F00400086400BF7F
:10479000002081F83C0000BF012070470020FCE7AA
:1047A0002DE9F84304460F4615469946DDE908868B
:1047B0002068006840F48060216808602068006814
:1047C00040F4807021680860434600224FF00111D8
:1047D0002046009600F094F860B12068006800F46C
:1047E0008070B0F5807F02D14FF400702064032008
:1047F000BDE8F88307F0FE002168086133464246B1
:104800003E49204600F0DBF808B10120F0E700BF88
:104810000020009020684069009020688069009026
:1048200000BF00BF32464146204600F08AF950B131
:10483000206C042805D12068006840F400702168CD
:1048400008600120D4E7B9F1010F03D1E8B2216873
:10485000086117E0C5F30720216808613246414628
:10486000204600F06EF950B1206C042805D1206874
:10487000006840F40070216808600120B8E7E8B2E1
:104880002168086132464146204600F05AF950B18D
:10489000206C042805D12068006840F4007021686D
:1048A00008600120A4E72068006840F48070216857
:1048B0000860434600224FF001112046009600F0A8
:1048C0001FF858B12068006800F48070B0F5807F50
:1048D00002D14FF400702064032089E7F8B240F061
:1048E000010021680861334642460449204600F031
:1048F00066F808B101207BE7002079E7020001009B
:104900002DE9F04104460D4617461E46DDF8188095
:1049100038E0701CA8B3FEF759F8A0EB0800B042CD
:1049200000D876BBC5F3074001280AD1206840694A
:10493000A9B20840A9B2884201D101200BE00020B1
:1049400009E020688069A9B20840A9B2884201D173
:10495000012000E00020B84214D100202063202074
:1049600084F83D00002084F83E00206C40F02000D8
:10497000206400BF002084F83C0000BF0120BDE897
:10498000F081FFE7C5F3074001280AD1206840699C
:10499000A9B20840A9B2884201D101200BE0002051
:1049A00009E020688069A9B20840A9B2884201D113
:1049B000012000E00020B842ABD00020DFE72DE965
:1049C000F04104460D4616461F4658E020684069EF
:1049D000C0F38020E8B12068006840F400702168CE
:1049E00008606FF480602168486100202063202007
:1049F00084F83D00002084F83E00206C40F0040064
:104A0000206400BF002084F83C0000BF0120BDE806
:104A1000F081701C90B3FDF7D9FFC01BB04200D8E5
:104A200066BBC5F3074001280AD120684069A9B2D6
:104A30000840A9B2884201D101200BE0002009E022
:104A400020688069A9B20840A9B2884201D101203A
:104A500000E0002090B900202063202084F83D0071
:104A6000002084F83E00206C40F02000206400BF4D
:104A7000002084F83C0000BF0120C8E7FFE7C5F331
:104A8000074001280AD120684069A9B20840A9B2AC
:104A9000884201D101200BE0002009E020688069F4
:104AA000A9B20840A9B2884201D1012000E000204B
:104AB00000288BD00020AAE770B504460D461646A4
:104AC00037E020684069C0F30010A0B16FF010001B
:104AD0002168486100202063202084F83D000020E8
:104AE00084F83E00206C206400BF002084F83C0065
:104AF00000BF012070BDFDF769FF801BA84200D8F0
:104B0000BDB920684069C0F3801090B900202063CF
:104B1000202084F83D00002084F83E00206C40F006
:104B20002000206400BF002084F83C0000BF01206A
:104B3000E0E720684069C0F380100028C1D0002061
:104B4000D8E770B504460D46164625E02046FFF727
:104B500008FE08B1012070BD681CE8B1FDF736FF02
:104B6000801BA84200D8BDB920684069C0F3C010BE
:104B700090B900202063202084F83D00002084F8B4
:104B80003E00206C40F02000206400BF002084F82C
:104B90003C0000BF0120DEE720684069C0F3C01080
:104BA0000028D3D00020D6E770B55C211DA0FBF70C
:104BB00063FB28B15C211BA0FBF75EFB401C00E0FF
:104BC00018A005462F21FBF757FB002811D05C21C8
:104BD00014A0FBF751FB28B15C2112A0FBF74CFBA2
:104BE000401C00E00FA005462F21FBF745FB401CB1
:104BF0000BE05C210BA0FBF73FFB28B15C2109A077
:104C0000FBF73AFB401C00E006A004466A2221465E
:104C10000CA001F0A5FA002208211348FDF7D0FEF0
:104C200070BD00002E2E5C496E665C4154363535F1
:104C300038525C496E665F415436353538522E63C2
:104C4000000000005B253230733A2534645D202D6E
:104C50002D20475053B5E7D4B4BDABB1BB20B6CF80
:104C6000BFAA2E2E2E0D0A00000C014070B55C214B
:104C70001DA0FBF701FB28B15C211BA0FBF7FCFA90
:104C8000401C00E018A005462F21FBF7F5FA00288C
:104C900011D05C2114A0FBF7EFFA28B15C2112A01F
:104CA000FBF7EAFA401C00E00FA005462F21FBF7B6
:104CB000E3FA401C0BE05C210BA0FBF7DDFA28B106
:104CC0005C2109A0FBF7D8FA401C00E006A00446CE
:104CD000702221460CA001F043FA0122082113485A
:104CE000FDF76EFE70BD00002E2E5C496E665C41C5
:104CF0005436353538525C496E665F415436353529
:104D000038522E63000000005B253230733A2534A0
:104D1000645D202D2D20475053B5E7D4B4BDABB111
:104D2000BB20BBD6B8B42E2E2E0D0A00000C0140BD
:104D300010B500F0A5FD4FF4806205490548FFF766
:104D4000F1F905A000F058F806A000F055F810BDE4
:104D50003A0D0020F80200205043415330322C31EC
:104D6000303030005043415330342C3300000000C9
:104D700070B505460C462846FBF76EFA06463146E6
:104D80002846FBF74CFA002020800E48008800B926
:104D900070BD0C4802880C492846FBF727FA0BA186
:104DA0002846FBF747FA38B109A12846FBF742FA33
:104DB00010B104480088208000200249088000BF0C
:104DC000E6E70000160000203A0D002047474100AA
:104DD0005458540010B504464FF480620349044807
:104DE000FFF7A0F90348048010BD00003A0D002031
:104DF000F8020020160000202DE9F041044664214D
:104E00002B48FBF70CFA2578012003E0215C4D408C
:104E1000411CC8B2215C0029F8D12B46224625A1AD
:104E2000234801F0ADF95C2125A0FBF725FA28B154
:104E30005C2123A0FBF720FA401C00E020A00746DD
:104E40002F21FBF719FA002811D05C211CA0FBF7D9
:104E500013FA28B15C211AA0FBF70EFA401C00E0FF
:104E600017A007462F21FBF707FA401C0BE05C2137
:104E700013A0FBF701FA28B15C2111A0FBF7FCF9A4
:104E8000401C00E00EA00646094B2422314614A027
:104E900001F066F90648FBF7DFF986B24FF4FA63D2
:104EA000324603491748FFF700FCBDE8F0810000D7
:104EB0003A1100202425732A253032580D0A0000AB
:104EC0002E2E5C496E665C415436353538525C494D
:104ED0006E665F415436353538522E63000000004F
:104EE0005B253230733A2534645D202D2D20B8F8CF
:104EF000475053B7A2CBCDD6B8C1EE3A2025730D9B
:104F00000A000000F802002010B500F047FC10BDB8
:104F100010B50024C42000F00DF80443C52000F0B3
:104F200009F844EA0024C62000F004F844EA0044EA
:104F3000204610BD1FB5044600200390002220210A
:104F40000F48FDF73DFD0420FCF747FD4FF4FA60E4
:104F5000012103AA0B46CDE90021029022464F21F0
:104F60000848FDF733FE012220210548FDF728FD02
:104F70000B20FCF732FD9DF80C0004B010BD0000C2
:104F8000000C0140F001002010B500F03BFC02498C
:104F90000868804710BD0000FC7C0008F8B5044696
:104FA0000D465C211BA0FBF767F928B15C2119A015
:104FB000FBF762F9401C00E016A007462F21FBF723
:104FC0005BF988B15C2113A0FBF756F928B15C218D
:104FD00010A0FBF751F9401C00E00EA007462F215E
:104FE000FBF74AF9401C0BE05C210AA0FBF744F9EF
:104FF00028B15C2107A0FBF73FF9401C00E005A0A9
:1050000006462B461A22314609A0009401F0A8F862
:10501000F8BD00002E2E5C496E665C4C4C43433656
:10502000385C496E665F4C6F52612E630000000071
:105030005B253230733A2534645D202D2D20BDD39D
:10504000CAD5B5BDB5C4CAFDBEDD3A20252E2A732A
:105050000D0A0D0A0000000070B505460C46E1B2CD
:105060000248002243682846984770BDFC7C00082F
:1050700070B55C211AA0FBF7FFF828B15C2118A0DD
:10508000FBF7FAF8401C00E015A005462F21FBF7BE
:10509000F3F888B15C2112A0FBF7EEF828B15C218F
:1050A0000FA0FBF7E9F8401C00E00DA005462F21FA
:1050B000FBF7E2F8401C0BE05C2109A0FBF7DCF8F1
:1050C00028B15C2106A0FBF7D7F8401C00E004A043
:1050D00004461F22214609A001F042F870BD0000DD
:1050E0002E2E5C496E665C4C4C434336385C496EF0
:1050F000665F4C6F52612E63000000005B2532300A
:10510000733A2534645D202D2D20B7A2CBCDB3C9D1
:10511000B9A62E2E2E2E0D0A0D0A0000F8B5044653
:105120000D46164632210B48FBF779F82B462246EE
:1051300009A10848009601F023F8064800F0BEF9DE
:105140000AA10B48FBF776F808B10020F8BD012052
:10515000FCE700000809002041542B4E534F434FF9
:105160003D25642C25732C25640D0A004F4B00004F
:105170000808002070B55C211BA0FBF77DF828B162
:105180005C2119A0FBF778F8401C00E016A005464A
:105190002F21FBF771F888B15C2113A0FBF76CF8A5
:1051A00028B15C2110A0FBF767F8401C00E00EA0BE
:1051B00005462F21FBF760F8401C0BE05C210AA09C
:1051C000FBF75AF828B15C2107A0FBF755F8401C03
:1051D00000E005A00446FE2221460AA000F0C0FF20
:1051E00012A000F06BF970BD2E2E5C496E665C510A
:1051F000535F3130305C496E665F51533130302E31
:10520000630000005B253230733A2534645D202D45
:105210002D20496F54BDF8C8EBB5CDB9A6BAC4C4AA
:10522000A3CABD2E2E2E0D0A0000000041542B46AD
:105230004153544F46460D0A0000000070B55C21F2
:105240001BA0FBF719F828B15C2119A0FBF714F893
:10525000401C00E016A005462F21FBF70DF888B191
:105260005C2113A0FBF708F828B15C2110A0FBF724
:1052700003F8401C00E00EA005462F21FAF7FCFFC2
:10528000401C0BE05C210AA0FAF7F6FF28B15C2174
:1052900007A0FAF7F1FF401C00E005A004464FF418
:1052A0008272214609A000F05BFF00F0EDF970BDAD
:1052B0002E2E5C496E665C51535F3130305C496E16
:1052C000665F51533130302E630000005B25323071
:1052D000733A2534645D202D2D20496F54BDABB148
:1052E000BBBBBDD0D12E2E2E0D0A000070B5802183
:1052F0002348FAF794FF0020224908804FF4807178
:105300002148FAF78CFF0020204908800624002558
:1053100000BF6FF07F4500BF1A48008818B9281EEB
:10532000A5F10105F8D11849184A128888181549BD
:105330000A881349FAF75AFF144800881149098866
:1053400008441249088000200E49088010A10E4828
:10535000FAF770FF48B90FA10B48FAF76BFF20B9B5
:10536000201EA4F10101CCB2D3D1074A074801881D
:105370000AA000F0F5FE0BA000F0F2FE70BD0000E8
:1053800088070020120000200808002014000020D8
:105390004F4B00004552524F52000000252E2A73F9
:1053A000000000003D3D3D3D3D3D3D3D3D3D3D3D21
:1053B0003D3D3D3D3D3D3D3D3D3D3D3D3D3D3D3D1D
:1053C0003D3D3D3D3D3D3D3D3D3D3D3D3D3D3D3D0D
:1053D0003D0D0A0010B500F057F900F06DFA80227B
:1053E00005490648FEF79EFE05A000F067F806A0F6
:1053F00000F064F810BD0000880700204003002082
:1054000041542B52420D0A00415445310D0A00000F
:1054100010B506A000F052F807A10A48FAF70AFFF3
:1054200008B1002010BD0120FCE7000041542B43CF
:10543000474154543F0D0A002B43474154543A31DD
:10544000000000000808002010B5044608A000F085
:1054500035F80DA10D48FAF7EDFE30B122460CA14A
:105460000A48FAF719FF002010BD0120FCE70000F0
:1054700041542B4E534F43523D53545245414D2CB2
:10548000362C302C300D0A004F4B0000080800204D
:10549000252A5B5E3A5D3A256868750010B50446BA
:1054A000802203490348FEF73DFE0348048010BDF7
:1054B00088070020400300201200002070B5044639
:1054C0002046FAF7C9FE85B24FF4FA632A46214610
:1054D0000248FFF7EAF8FFF709FF70BD400300201C
:1054E0002DE9FC4780460F4691461C46012000EB03
:1054F000440A504600F0A2FE0546012000EB44019C
:105500002846FAF78CFE002608E019F8062005EB7D
:10551000460020A100F034FE701C86B2A642F4DBE7
:105520004FF480611D48FAF77AFE234642461CA1DB
:105530001A48CDE9005700F023FE1848FFF7BEFFD8
:105540001FA12048FAF776FEF8B14FF480611348A6
:10555000FAF765FE3B4642461BA1104800F010FEDC
:1055600000BF0120FCF73FFA0C48FFF7A7FF1548E2
:10557000C07C3228F5D01348C07C312805D128469C
:1055800000F02EFE0020BDE8FC87284600F028FE33
:105590000120F8E725303278000000003A090020A9
:1055A00041542B4E534F53443D25642C25642C25E8
:1055B000732C30783230302C25640D0A0000000046
:1055C0004F4B00000808002041542B5345515545CE
:1055D0004E43453D25642C25640D0A002DE9F84312
:1055E00005460E46174698463C2402E00120FCF78B
:1055F000FAF9FFF70DFF012803D1601EC0B2041EA7
:10560000F4D114B90120BDE8F883142402200090DD
:1056100002E00120FCF7E7F96846FFF715FF0128D3
:1056200003D1601EC0B2041EF3D10CB90120EAE719
:10563000142402E00120FCF7D6F9324629469DF8F1
:105640000000FFF76BFD012803D1601EC0B2041EED
:10565000F0D10CB90120D6E7142402E00120FCF7B8
:10566000C2F943463A4601219DF80000FFF738FF92
:10567000012803D1601EC0B2041EEFD10CB9012075
:10568000C1E70020BFE7000010B501225103064822
:10569000FDF796F90220FCF7A0F900224FF4005123
:1056A0000148FDF78DF910BD000C014000B585B033
:1056B0000020019002900390049000BF344880695C
:1056C00040F01000324988610846806900F01000FF
:1056D000009000BF00BF00BF0846806940F0200076
:1056E00088610846806900F02000009000BF00BF7C
:1056F00000BF0846806940F0040088610846806960
:1057000000F00400009000BF00BF00BF08468069A1
:1057100040F0080088610846806900F008000090A9
:1057200000BF00BF012210211A48FDF749F90022ED
:1057300042F201011848FDF743F9012241F22C0120
:105740001548FDF73DF9102001900120029000203E
:1057500003900220049001A90E48FCF799FF43F240
:105760002D0001900120029000200390022004905F
:1057700001A90948FCF78CFF02200190002002904B
:10578000039001A90448FCF783FF05B000BD0000A9
:105790000010024000080140000C014010B50B4809
:1057A0000B4908600B484860002109488160C160CE
:1057B0004FF480410161002141618161C161016259
:1057C000FDF71CF908B1FCF7C9FE10BD00540040FC
:1057D000F0010020A086010010B5084808490860C3
:1057E0004FF0FF3048604FF4807105488160FEF74C
:1057F000B3F908B1FCF7B2FE10BD0000002800406C
:105800004402002010B50E480E4908604FF4827023
:10581000486000210B488160C160016141614FF423
:10582000007181610821C1610021016241628162D0
:105830000A21C162FEF79AFA08B1FCF78FFE10BD8B
:10584000003001405802002010B50B480B49086099
:105850004FF4E1304860002108488160C160016177
:105860000C21416100218161C161FEF721FE08B177
:10587000FCF774FE10BD000000380140B0020020AB
:1058800010B50B480B4908604FF4165048600021D2
:1058900008488160C16001610C2141610021816182
:1058A000C161FEF705FE08B1FCF758FE10BD00000F
:1058B00000440040F802002010B50B480B49086076
:1058C0004FF416504860002108488160C1600161B2
:1058D0000C21416100218161C161FEF7E9FD08B140
:1058E000FCF73CFE10BD00000048004040030020D3
:1058F00000BFFEE700BFFEE77047000008B508499B
:105900000968C9084FF47A72B1FBF2F14143009182
:1059100000BF00BF00994A1E00920029F9D108BDBE
:105920000C000020014600BF080900EB8000420087
:1059300001F00F001044C0B270470146002203E09E
:10594000521CA1F10A00C1B20A29F9D2100741EA9A
:10595000106070472DE9F04706468846002700246E
:105960000025A146F77B747BB57B00BF40E0012C8E
:105970000BD0032C09D0052C07D0072C05D0082C00
:1059800003D00A2C01D00C2C0CD11F2D01D26D1C80
:105990002CE00C2C02D0641C012527E001240125F9
:1059A0007F1C23E0042C05D0062C03D0092C01D049
:1059B0000B2C06D11E2D01D26D1C17E0641C012595
:1059C00014E0022C12D11C2D01D26D1C0EE01C2DF6
:1059D00008D1B8B200F053F808B16D1C06E0641CA1
:1059E000012503E01D2D01D1641C012509F10109E8
:1059F000C145BCD3F7737473B573EAB2E1B23846EC
:105A000000F07CF83073BDE8F08770B504460025DF
:105A1000FCF7DCFF054607E0FCF7D8FF401BB0F5BC
:105A20007A7F01D9032070BD2068406800F0200013
:105A30000028F1D02068406840F0100021684860DC
:105A40000020F0E770B5044600252068406820F08B
:105A5000100021684860FCF7B9FF054607E0FCF735
:105A6000B5FF401BB0F57A7F01D9032070BD2068D7
:105A7000406800F020000028F1D00020F6E7014641
:105A800001F0030008B1002070476420B1FBF0F280
:105A900000FB121008B10120F6E74FF4C870B1FB0B
:105AA000F0F200FB121008B90120EDE70020EBE74F
:105AB0000146002200230868006A82B20868406A32
:105AC00083B243EA0240704730B50146002200230A
:105AD000002400200D68AD69AAB20D68ED69ACB272
